{
  "_format": "hh-sol-artifact-1",
  "contractName": "Events",
  "sourceName": "contracts/05_Events.sol",
  "abi": [
    {
      "inputs": [],
      "stateMutability": "nonpayable",
      "type": "constructor"
    },
    {
      "anonymous": true,
      "inputs": [
        {
          "indexed": false,
          "internalType": "string",
          "name": "message",
          "type": "string"
        }
      ],
      "name": "AnonymousLog",
      "type": "event"
    },
    {
      "anonymous": false,
      "inputs": [
        {
          "indexed": true,
          "internalType": "address",
          "name": "from",
          "type": "address"
        },
        {
          "indexed": false,
          "internalType": "uint256",
          "name": "amount",
          "type": "uint256"
        },
        {
          "indexed": false,
          "internalType": "uint256",
          "name": "timestamp",
          "type": "uint256"
        }
      ],
      "name": "Deposit",
      "type": "event"
    },
    {
      "anonymous": false,
      "inputs": [
        {
          "indexed": false,
          "internalType": "address",
          "name": "oldOwner",
          "type": "address"
        },
        {
          "indexed": false,
          "internalType": "address",
          "name": "newOwner",
          "type": "address"
        }
      ],
      "name": "OwnerChanged",
      "type": "event"
    },
    {
      "anonymous": false,
      "inputs": [
        {
          "indexed": false,
          "internalType": "uint256",
          "name": "oldValue",
          "type": "uint256"
        },
        {
          "indexed": false,
          "internalType": "uint256",
          "name": "newValue",
          "type": "uint256"
        },
        {
          "indexed": false,
          "internalType": "address",
          "name": "changedBy",
          "type": "address"
        }
      ],
      "name": "ValueChanged",
      "type": "event"
    },
    {
      "anonymous": false,
      "inputs": [
        {
          "indexed": true,
          "internalType": "address",
          "name": "to",
          "type": "address"
        },
        {
          "indexed": false,
          "internalType": "uint256",
          "name": "amount",
          "type": "uint256"
        }
      ],
      "name": "Withdrawal",
      "type": "event"
    },
    {
      "inputs": [
        {
          "internalType": "address",
          "name": "newOwner",
          "type": "address"
        }
      ],
      "name": "changeOwner",
      "outputs": [],
      "stateMutability": "nonpayable",
      "type": "function"
    },
    {
      "inputs": [],
      "name": "deposit",
      "outputs": [],
      "stateMutability": "payable",
      "type": "function"
    },
    {
      "inputs": [
        {
          "internalType": "string",
          "name": "message",
          "type": "string"
        }
      ],
      "name": "logAnonymously",
      "outputs": [],
      "stateMutability": "nonpayable",
      "type": "function"
    },
    {
      "inputs": [],
      "name": "owner",
      "outputs": [
        {
          "internalType": "address",
          "name": "",
          "type": "address"
        }
      ],
      "stateMutability": "view",
      "type": "function"
    },
    {
      "inputs": [
        {
          "internalType": "uint256",
          "name": "newValue",
          "type": "uint256"
        }
      ],
      "name": "setValue",
      "outputs": [],
      "stateMutability": "nonpayable",
      "type": "function"
    },
    {
      "inputs": [],
      "name": "value",
      "outputs": [
        {
          "internalType": "uint256",
          "name": "",
          "type": "uint256"
        }
      ],
      "stateMutability": "view",
      "type": "function"
    },
    {
      "inputs": [
        {
          "internalType": "uint256",
          "name": "amount",
          "type": "uint256"
        }
      ],
      "name": "withdraw",
      "outputs": [],
      "stateMutability": "nonpayable",
      "type": "function"
    }
  ],
  "bytecode": "0x608060405234801561001057600080fd5b5033600160006101000a81548173ffffffffffffffffffffffffffffffffffffffff021916908373ffffffffffffffffffffffffffffffffffffffff1602179055507fb532073b38c83145e3e5135377a08bf9aab55bc0fd7c1179cd4fb995d2a5159c6000600160009054906101000a900473ffffffffffffffffffffffffffffffffffffffff166040516100a69291906100f4565b60405180910390a161011d565b600073ffffffffffffffffffffffffffffffffffffffff82169050919050565b60006100de826100b3565b9050919050565b6100ee816100d3565b82525050565b600060408201905061010960008301856100e5565b61011660208301846100e5565b9392505050565b610b608061012c6000396000f3fe6080604052600436106100705760003560e01c8063552410771161004e57806355241077146100f25780638da5cb5b1461011b578063a6f9dae114610146578063d0e30db01461016f57610070565b8063235979bc146100755780632e1a7d4d1461009e5780633fa4f245146100c7575b600080fd5b34801561008157600080fd5b5061009c600480360381019061009791906106c5565b610179565b005b3480156100aa57600080fd5b506100c560048036038101906100c09190610744565b610192565b005b3480156100d357600080fd5b506100dc6102fd565b6040516100e99190610780565b60405180910390f35b3480156100fe57600080fd5b5061011960048036038101906101149190610744565b610303565b005b34801561012757600080fd5b5061013061034f565b60405161013d91906107dc565b60405180910390f35b34801561015257600080fd5b5061016d60048036038101906101689190610823565b610375565b005b610177610519565b005b8060405161018791906108cf565b60405180910390a050565b600160009054906101000a900473ffffffffffffffffffffffffffffffffffffffff1673ffffffffffffffffffffffffffffffffffffffff163373ffffffffffffffffffffffffffffffffffffffff1614610222576040517f08c379a00000000000000000000000000000000000000000000000000000000081526004016102199061093d565b60405180910390fd5b80471015610265576040517f08c379a000000000000000000000000000000000000000000000000000000000815260040161025c906109a9565b60405180910390fd5b3373ffffffffffffffffffffffffffffffffffffffff167f7fcf532c15f0a6db0bd6d0e038bea71d30d808c7d98cb3bf7268a95bf5081b65826040516102ab9190610780565b60405180910390a23373ffffffffffffffffffffffffffffffffffffffff166108fc829081150290604051600060405180830381858888f193505050501580156102f9573d6000803e3d6000fd5b5050565b60005481565b600080549050816000819055507f681683094c99fb1b55d9c72829a0516f885774946ee037b112798941433c137b818333604051610343939291906109c9565b60405180910390a15050565b600160009054906101000a900473ffffffffffffffffffffffffffffffffffffffff1681565b600160009054906101000a900473ffffffffffffffffffffffffffffffffffffffff1673ffffffffffffffffffffffffffffffffffffffff163373ffffffffffffffffffffffffffffffffffffffff1614610405576040517f08c379a00000000000000000000000000000000000000000000000000000000081526004016103fc90610a4c565b60405180910390fd5b600073ffffffffffffffffffffffffffffffffffffffff168173ffffffffffffffffffffffffffffffffffffffff1603610474576040517f08c379a000000000000000000000000000000000000000000000000000000000815260040161046b90610ab8565b60405180910390fd5b6000600160009054906101000a900473ffffffffffffffffffffffffffffffffffffffff16905081600160006101000a81548173ffffffffffffffffffffffffffffffffffffffff021916908373ffffffffffffffffffffffffffffffffffffffff1602179055507fb532073b38c83145e3e5135377a08bf9aab55bc0fd7c1179cd4fb995d2a5159c818360405161050d929190610ad8565b60405180910390a15050565b3373ffffffffffffffffffffffffffffffffffffffff167f90890809c654f11d6e72a28fa60149770a0d11ec6c92319d6ceb2bb0a4ea1a153442604051610561929190610b01565b60405180910390a2565b6000604051905090565b600080fd5b600080fd5b600080fd5b600080fd5b6000601f19601f8301169050919050565b7f4e487b7100000000000000000000000000000000000000000000000000000000600052604160045260246000fd5b6105d282610589565b810181811067ffffffffffffffff821117156105f1576105f061059a565b5b80604052505050565b600061060461056b565b905061061082826105c9565b919050565b600067ffffffffffffffff8211156106305761062f61059a565b5b61063982610589565b9050602081019050919050565b82818337600083830152505050565b600061066861066384610615565b6105fa565b90508281526020810184848401111561068457610683610584565b5b61068f848285610646565b509392505050565b600082601f8301126106ac576106ab61057f565b5b81356106bc848260208601610655565b91505092915050565b6000602082840312156106db576106da610575565b5b600082013567ffffffffffffffff8111156106f9576106f861057a565b5b61070584828501610697565b91505092915050565b6000819050919050565b6107218161070e565b811461072c57600080fd5b50565b60008135905061073e81610718565b92915050565b60006020828403121561075a57610759610575565b5b60006107688482850161072f565b91505092915050565b61077a8161070e565b82525050565b60006020820190506107956000830184610771565b92915050565b600073ffffffffffffffffffffffffffffffffffffffff82169050919050565b60006107c68261079b565b9050919050565b6107d6816107bb565b82525050565b60006020820190506107f160008301846107cd565b92915050565b610800816107bb565b811461080b57600080fd5b50565b60008135905061081d816107f7565b92915050565b60006020828403121561083957610838610575565b5b60006108478482850161080e565b91505092915050565b600081519050919050565b600082825260208201905092915050565b60005b8381101561088a57808201518184015260208101905061086f565b60008484015250505050565b60006108a182610850565b6108ab818561085b565b93506108bb81856020860161086c565b6108c481610589565b840191505092915050565b600060208201905081810360008301526108e98184610896565b905092915050565b7f4f6e6c79206f776e65722063616e207769746864726177000000000000000000600082015250565b600061092760178361085b565b9150610932826108f1565b602082019050919050565b600060208201905081810360008301526109568161091a565b9050919050565b7f496e73756666696369656e742062616c616e6365000000000000000000000000600082015250565b600061099360148361085b565b915061099e8261095d565b602082019050919050565b600060208201905081810360008301526109c281610986565b9050919050565b60006060820190506109de6000830186610771565b6109eb6020830185610771565b6109f860408301846107cd565b949350505050565b7f4f6e6c79206f776e65722063616e206368616e6765206f776e65727368697000600082015250565b6000610a36601f8361085b565b9150610a4182610a00565b602082019050919050565b60006020820190508181036000830152610a6581610a29565b9050919050565b7f496e76616c696420616464726573730000000000000000000000000000000000600082015250565b6000610aa2600f8361085b565b9150610aad82610a6c565b602082019050919050565b60006020820190508181036000830152610ad181610a95565b9050919050565b6000604082019050610aed60008301856107cd565b610afa60208301846107cd565b9392505050565b6000604082019050610b166000830185610771565b610b236020830184610771565b939250505056fea2646970667358221220fd2a098c2a5368b2320bffe53d8d5567c26e5c351498960800954f4efadc5d5764736f6c63430008140033",
  "linkReferences": {},
  "deployedLinkReferences": {}
}