{"contracts/01_HelloWorld.sol":{"HelloWorld":{"abi":[{"inputs":[{"internalType":"string","name":"initialMessage","type":"string"}],"stateMutability":"nonpayable","type":"constructor"},{"inputs":[],"name":"getMessage","outputs":[{"internalType":"string","name":"","type":"string"}],"stateMutability":"view","type":"function"},{"inputs":[{"internalType":"string","name":"newMessage","type":"string"}],"name":"setMessage","outputs":[],"stateMutability":"nonpayable","type":"function"}],"evm":{"bytecode":{"linkReferences":{},"object":"60806040523480156200001157600080fd5b5060405162000bf238038062000bf28339818101604052810190620000379190620001e3565b80600090816200004891906200047f565b505062000566565b6000604051905090565b600080fd5b600080fd5b600080fd5b600080fd5b6000601f19601f8301169050919050565b7f4e487b7100000000000000000000000000000000000000000000000000000000600052604160045260246000fd5b620000b9826200006e565b810181811067ffffffffffffffff82111715620000db57620000da6200007f565b5b80604052505050565b6000620000f062000050565b9050620000fe8282620000ae565b919050565b600067ffffffffffffffff8211156200012157620001206200007f565b5b6200012c826200006e565b9050602081019050919050565b60005b83811015620001595780820151818401526020810190506200013c565b60008484015250505050565b60006200017c620001768462000103565b620000e4565b9050828152602081018484840111156200019b576200019a62000069565b5b620001a884828562000139565b509392505050565b600082601f830112620001c857620001c762000064565b5b8151620001da84826020860162000165565b91505092915050565b600060208284031215620001fc57620001fb6200005a565b5b600082015167ffffffffffffffff8111156200021d576200021c6200005f565b5b6200022b84828501620001b0565b91505092915050565b600081519050919050565b7f4e487b7100000000000000000000000000000000000000000000000000000000600052602260045260246000fd5b600060028204905060018216806200028757607f821691505b6020821081036200029d576200029c6200023f565b5b50919050565b60008190508160005260206000209050919050565b60006020601f8301049050919050565b600082821b905092915050565b600060088302620003077fffffffffffffffffffffffffffffffffffffffffffffffffffffffffffffffff82620002c8565b620003138683620002c8565b95508019841693508086168417925050509392505050565b6000819050919050565b6000819050919050565b6000620003606200035a62000354846200032b565b62000335565b6200032b565b9050919050565b6000819050919050565b6200037c836200033f565b620003946200038b8262000367565b848454620002d5565b825550505050565b600090565b620003ab6200039c565b620003b881848462000371565b505050565b5b81811015620003e057620003d4600082620003a1565b600181019050620003be565b5050565b601f8211156200042f57620003f981620002a3565b6200040484620002b8565b8101602085101562000414578190505b6200042c6200042385620002b8565b830182620003bd565b50505b505050565b600082821c905092915050565b6000620004546000198460080262000434565b1980831691505092915050565b60006200046f838362000441565b9150826002028217905092915050565b6200048a8262000234565b67ffffffffffffffff811115620004a657620004a56200007f565b5b620004b282546200026e565b620004bf828285620003e4565b600060209050601f831160018114620004f75760008415620004e2578287015190505b620004ee858262000461565b8655506200055e565b601f1984166200050786620002a3565b60005b8281101562000531578489015182556001820191506020850194506020810190506200050a565b868310156200055157848901516200054d601f89168262000441565b8355505b6001600288020188555050505b505050505050565b61067c80620005766000396000f3fe608060405234801561001057600080fd5b50600436106100365760003560e01c8063368b87721461003b578063ce6d41de14610057575b600080fd5b61005560048036038101906100509190610274565b610075565b005b61005f610088565b60405161006c919061033c565b60405180910390f35b80600090816100849190610574565b5050565b6060600080546100979061038d565b80601f01602080910402602001604051908101604052809291908181526020018280546100c39061038d565b80156101105780601f106100e557610100808354040283529160200191610110565b820191906000526020600020905b8154815290600101906020018083116100f357829003601f168201915b5050505050905090565b6000604051905090565b600080fd5b600080fd5b600080fd5b600080fd5b6000601f19601f8301169050919050565b7f4e487b7100000000000000000000000000000000000000000000000000000000600052604160045260246000fd5b61018182610138565b810181811067ffffffffffffffff821117156101a05761019f610149565b5b80604052505050565b60006101b361011a565b90506101bf8282610178565b919050565b600067ffffffffffffffff8211156101df576101de610149565b5b6101e882610138565b9050602081019050919050565b82818337600083830152505050565b6000610217610212846101c4565b6101a9565b90508281526020810184848401111561023357610232610133565b5b61023e8482856101f5565b509392505050565b600082601f83011261025b5761025a61012e565b5b813561026b848260208601610204565b91505092915050565b60006020828403121561028a57610289610124565b5b600082013567ffffffffffffffff8111156102a8576102a7610129565b5b6102b484828501610246565b91505092915050565b600081519050919050565b600082825260208201905092915050565b60005b838110156102f75780820151818401526020810190506102dc565b60008484015250505050565b600061030e826102bd565b61031881856102c8565b93506103288185602086016102d9565b61033181610138565b840191505092915050565b600060208201905081810360008301526103568184610303565b905092915050565b7f4e487b7100000000000000000000000000000000000000000000000000000000600052602260045260246000fd5b600060028204905060018216806103a557607f821691505b6020821081036103b8576103b761035e565b5b50919050565b60008190508160005260206000209050919050565b60006020601f8301049050919050565b600082821b905092915050565b6000600883026104207fffffffffffffffffffffffffffffffffffffffffffffffffffffffffffffffff826103e3565b61042a86836103e3565b95508019841693508086168417925050509392505050565b6000819050919050565b6000819050919050565b600061047161046c61046784610442565b61044c565b610442565b9050919050565b6000819050919050565b61048b83610456565b61049f61049782610478565b8484546103f0565b825550505050565b600090565b6104b46104a7565b6104bf818484610482565b505050565b5b818110156104e3576104d86000826104ac565b6001810190506104c5565b5050565b601f821115610528576104f9816103be565b610502846103d3565b81016020851015610511578190505b61052561051d856103d3565b8301826104c4565b50505b505050565b600082821c905092915050565b600061054b6000198460080261052d565b1980831691505092915050565b6000610564838361053a565b9150826002028217905092915050565b61057d826102bd565b67ffffffffffffffff81111561059657610595610149565b5b6105a0825461038d565b6105ab8282856104e7565b600060209050601f8311600181146105de57600084156105cc578287015190505b6105d68582610558565b86555061063e565b601f1984166105ec866103be565b60005b82811015610614578489015182556001820191506020850194506020810190506105ef565b86831015610631578489015161062d601f89168261053a565b8355505b6001600288020188555050505b50505050505056fea2646970667358221220ba14bdb19881a26aa1d55c4661bf95f1b1c967c7d7623cb0ed42c4954a2ebda964736f6c63430008140033","opcodes":"PUSH1 0x80 PUSH1 0x40 MSTORE CALLVALUE DUP1 ISZERO PUSH3 0x11 JUMPI PUSH1 0x0 DUP1 REVERT JUMPDEST POP PUSH1 0x40 MLOAD PUSH3 0xBF2 CODESIZE SUB DUP1 PUSH3 0xBF2 DUP4 CODECOPY DUP2 DUP2 ADD PUSH1 0x40 MSTORE DUP2 ADD SWAP1 PUSH3 0x37 SWAP2 SWAP1 PUSH3 0x1E3 JUMP JUMPDEST DUP1 PUSH1 0x0 SWAP1 DUP2 PUSH3 0x48 SWAP2 SWAP1 PUSH3 0x47F JUMP JUMPDEST POP POP PUSH3 0x566 JUMP JUMPDEST PUSH1 0x0 PUSH1 0x40 MLOAD SWAP1 POP SWAP1 JUMP JUMPDEST PUSH1 0x0 DUP1 REVERT JUMPDEST PUSH1 0x0 DUP1 REVERT JUMPDEST PUSH1 0x0 DUP1 REVERT JUMPDEST PUSH1 0x0 DUP1 REVERT JUMPDEST PUSH1 0x0 PUSH1 0x1F NOT PUSH1 0x1F DUP4 ADD AND SWAP1 POP SWAP2 SWAP1 POP JUMP JUMPDEST PUSH32 0x4E487B7100000000000000000000000000000000000000000000000000000000 PUSH1 0x0 MSTORE PUSH1 0x41 PUSH1 0x4 MSTORE PUSH1 0x24 PUSH1 0x0 REVERT JUMPDEST PUSH3 0xB9 DUP3 PUSH3 0x6E JUMP JUMPDEST DUP2 ADD DUP2 DUP2 LT PUSH8 0xFFFFFFFFFFFFFFFF DUP3 GT OR ISZERO PUSH3 0xDB JUMPI PUSH3 0xDA PUSH3 0x7F JUMP JUMPDEST JUMPDEST DUP1 PUSH1 0x40 MSTORE POP POP POP JUMP JUMPDEST PUSH1 0x0 PUSH3 0xF0 PUSH3 0x50 JUMP JUMPDEST SWAP1 POP PUSH3 0xFE DUP3 DUP3 PUSH3 0xAE JUMP JUMPDEST SWAP2 SWAP1 POP JUMP JUMPDEST PUSH1 0x0 PUSH8 0xFFFFFFFFFFFFFFFF DUP3 GT ISZERO PUSH3 0x121 JUMPI PUSH3 0x120 PUSH3 0x7F JUMP JUMPDEST JUMPDEST PUSH3 0x12C DUP3 PUSH3 0x6E JUMP JUMPDEST SWAP1 POP PUSH1 0x20 DUP2 ADD SWAP1 POP SWAP2 SWAP1 POP JUMP JUMPDEST PUSH1 0x0 JUMPDEST DUP4 DUP2 LT ISZERO PUSH3 0x159 JUMPI DUP1 DUP3 ADD MLOAD DUP2 DUP5 ADD MSTORE PUSH1 0x20 DUP2 ADD SWAP1 POP PUSH3 0x13C JUMP JUMPDEST PUSH1 0x0 DUP5 DUP5 ADD MSTORE POP POP POP POP JUMP JUMPDEST PUSH1 0x0 PUSH3 0x17C PUSH3 0x176 DUP5 PUSH3 0x103 JUMP JUMPDEST PUSH3 0xE4 JUMP JUMPDEST SWAP1 POP DUP3 DUP2 MSTORE PUSH1 0x20 DUP2 ADD DUP5 DUP5 DUP5 ADD GT ISZERO PUSH3 0x19B JUMPI PUSH3 0x19A PUSH3 0x69 JUMP JUMPDEST JUMPDEST PUSH3 0x1A8 DUP5 DUP3 DUP6 PUSH3 0x139 JUMP JUMPDEST POP SWAP4 SWAP3 POP POP POP JUMP JUMPDEST PUSH1 0x0 DUP3 PUSH1 0x1F DUP4 ADD SLT PUSH3 0x1C8 JUMPI PUSH3 0x1C7 PUSH3 0x64 JUMP JUMPDEST JUMPDEST DUP2 MLOAD PUSH3 0x1DA DUP5 DUP3 PUSH1 0x20 DUP7 ADD PUSH3 0x165 JUMP JUMPDEST SWAP2 POP POP SWAP3 SWAP2 POP POP JUMP JUMPDEST PUSH1 0x0 PUSH1 0x20 DUP3 DUP5 SUB SLT ISZERO PUSH3 0x1FC JUMPI PUSH3 0x1FB PUSH3 0x5A JUMP JUMPDEST JUMPDEST PUSH1 0x0 DUP3 ADD MLOAD PUSH8 0xFFFFFFFFFFFFFFFF DUP2 GT ISZERO PUSH3 0x21D JUMPI PUSH3 0x21C PUSH3 0x5F JUMP JUMPDEST JUMPDEST PUSH3 0x22B DUP5 DUP3 DUP6 ADD PUSH3 0x1B0 JUMP JUMPDEST SWAP2 POP POP SWAP3 SWAP2 POP POP JUMP JUMPDEST PUSH1 0x0 DUP2 MLOAD SWAP1 POP SWAP2 SWAP1 POP JUMP JUMPDEST PUSH32 0x4E487B7100000000000000000000000000000000000000000000000000000000 PUSH1 0x0 MSTORE PUSH1 0x22 PUSH1 0x4 MSTORE PUSH1 0x24 PUSH1 0x0 REVERT JUMPDEST PUSH1 0x0 PUSH1 0x2 DUP3 DIV SWAP1 POP PUSH1 0x1 DUP3 AND DUP1 PUSH3 0x287 JUMPI PUSH1 0x7F DUP3 AND SWAP2 POP JUMPDEST PUSH1 0x20 DUP3 LT DUP2 SUB PUSH3 0x29D JUMPI PUSH3 0x29C PUSH3 0x23F JUMP JUMPDEST JUMPDEST POP SWAP2 SWAP1 POP JUMP JUMPDEST PUSH1 0x0 DUP2 SWAP1 POP DUP2 PUSH1 0x0 MSTORE PUSH1 0x20 PUSH1 0x0 KECCAK256 SWAP1 POP SWAP2 SWAP1 POP JUMP JUMPDEST PUSH1 0x0 PUSH1 0x20 PUSH1 0x1F DUP4 ADD DIV SWAP1 POP SWAP2 SWAP1 POP JUMP JUMPDEST PUSH1 0x0 DUP3 DUP3 SHL SWAP1 POP SWAP3 SWAP2 POP POP JUMP JUMPDEST PUSH1 0x0 PUSH1 0x8 DUP4 MUL PUSH3 0x307 PUSH32 0xFFFFFFFFFFFFFFFFFFFFFFFFFFFFFFFFFFFFFFFFFFFFFFFFFFFFFFFFFFFFFFFF DUP3 PUSH3 0x2C8 JUMP JUMPDEST PUSH3 0x313 DUP7 DUP4 PUSH3 0x2C8 JUMP JUMPDEST SWAP6 POP DUP1 NOT DUP5 AND SWAP4 POP DUP1 DUP7 AND DUP5 OR SWAP3 POP POP POP SWAP4 SWAP3 POP POP POP JUMP JUMPDEST PUSH1 0x0 DUP2 SWAP1 POP SWAP2 SWAP1 POP JUMP JUMPDEST PUSH1 0x0 DUP2 SWAP1 POP SWAP2 SWAP1 POP JUMP JUMPDEST PUSH1 0x0 PUSH3 0x360 PUSH3 0x35A PUSH3 0x354 DUP5 PUSH3 0x32B JUMP JUMPDEST PUSH3 0x335 JUMP JUMPDEST PUSH3 0x32B JUMP JUMPDEST SWAP1 POP SWAP2 SWAP1 POP JUMP JUMPDEST PUSH1 0x0 DUP2 SWAP1 POP SWAP2 SWAP1 POP JUMP JUMPDEST PUSH3 0x37C DUP4 PUSH3 0x33F JUMP JUMPDEST PUSH3 0x394 PUSH3 0x38B DUP3 PUSH3 0x367 JUMP JUMPDEST DUP5 DUP5 SLOAD PUSH3 0x2D5 JUMP JUMPDEST DUP3 SSTORE POP POP POP POP JUMP JUMPDEST PUSH1 0x0 SWAP1 JUMP JUMPDEST PUSH3 0x3AB PUSH3 0x39C JUMP JUMPDEST PUSH3 0x3B8 DUP2 DUP5 DUP5 PUSH3 0x371 JUMP JUMPDEST POP POP POP JUMP JUMPDEST JUMPDEST DUP2 DUP2 LT ISZERO PUSH3 0x3E0 JUMPI PUSH3 0x3D4 PUSH1 0x0 DUP3 PUSH3 0x3A1 JUMP JUMPDEST PUSH1 0x1 DUP2 ADD SWAP1 POP PUSH3 0x3BE JUMP JUMPDEST POP POP JUMP JUMPDEST PUSH1 0x1F DUP3 GT ISZERO PUSH3 0x42F JUMPI PUSH3 0x3F9 DUP2 PUSH3 0x2A3 JUMP JUMPDEST PUSH3 0x404 DUP5 PUSH3 0x2B8 JUMP JUMPDEST DUP2 ADD PUSH1 0x20 DUP6 LT ISZERO PUSH3 0x414 JUMPI DUP2 SWAP1 POP JUMPDEST PUSH3 0x42C PUSH3 0x423 DUP6 PUSH3 0x2B8 JUMP JUMPDEST DUP4 ADD DUP3 PUSH3 0x3BD JUMP JUMPDEST POP POP JUMPDEST POP POP POP JUMP JUMPDEST PUSH1 0x0 DUP3 DUP3 SHR SWAP1 POP SWAP3 SWAP2 POP POP JUMP JUMPDEST PUSH1 0x0 PUSH3 0x454 PUSH1 0x0 NOT DUP5 PUSH1 0x8 MUL PUSH3 0x434 JUMP JUMPDEST NOT DUP1 DUP4 AND SWAP2 POP POP SWAP3 SWAP2 POP POP JUMP JUMPDEST PUSH1 0x0 PUSH3 0x46F DUP4 DUP4 PUSH3 0x441 JUMP JUMPDEST SWAP2 POP DUP3 PUSH1 0x2 MUL DUP3 OR SWAP1 POP SWAP3 SWAP2 POP POP JUMP JUMPDEST PUSH3 0x48A DUP3 PUSH3 0x234 JUMP JUMPDEST PUSH8 0xFFFFFFFFFFFFFFFF DUP2 GT ISZERO PUSH3 0x4A6 JUMPI PUSH3 0x4A5 PUSH3 0x7F JUMP JUMPDEST JUMPDEST PUSH3 0x4B2 DUP3 SLOAD PUSH3 0x26E JUMP JUMPDEST PUSH3 0x4BF DUP3 DUP3 DUP6 PUSH3 0x3E4 JUMP JUMPDEST PUSH1 0x0 PUSH1 0x20 SWAP1 POP PUSH1 0x1F DUP4 GT PUSH1 0x1 DUP2 EQ PUSH3 0x4F7 JUMPI PUSH1 0x0 DUP5 ISZERO PUSH3 0x4E2 JUMPI DUP3 DUP8 ADD MLOAD SWAP1 POP JUMPDEST PUSH3 0x4EE DUP6 DUP3 PUSH3 0x461 JUMP JUMPDEST DUP7 SSTORE POP PUSH3 0x55E JUMP JUMPDEST PUSH1 0x1F NOT DUP5 AND PUSH3 0x507 DUP7 PUSH3 0x2A3 JUMP JUMPDEST PUSH1 0x0 JUMPDEST DUP3 DUP2 LT ISZERO PUSH3 0x531 JUMPI DUP5 DUP10 ADD MLOAD DUP3 SSTORE PUSH1 0x1 DUP3 ADD SWAP2 POP PUSH1 0x20 DUP6 ADD SWAP5 POP PUSH1 0x20 DUP2 ADD SWAP1 POP PUSH3 0x50A JUMP JUMPDEST DUP7 DUP4 LT ISZERO PUSH3 0x551 JUMPI DUP5 DUP10 ADD MLOAD PUSH3 0x54D PUSH1 0x1F DUP10 AND DUP3 PUSH3 0x441 JUMP JUMPDEST DUP4 SSTORE POP JUMPDEST PUSH1 0x1 PUSH1 0x2 DUP9 MUL ADD DUP9 SSTORE POP POP POP JUMPDEST POP POP POP POP POP POP JUMP JUMPDEST PUSH2 0x67C DUP1 PUSH3 0x576 PUSH1 0x0 CODECOPY PUSH1 0x0 RETURN INVALID PUSH1 0x80 PUSH1 0x40 MSTORE CALLVALUE DUP1 ISZERO PUSH2 0x10 JUMPI PUSH1 0x0 DUP1 REVERT JUMPDEST POP PUSH1 0x4 CALLDATASIZE LT PUSH2 0x36 JUMPI PUSH1 0x0 CALLDATALOAD PUSH1 0xE0 SHR DUP1 PUSH4 0x368B8772 EQ PUSH2 0x3B JUMPI DUP1 PUSH4 0xCE6D41DE EQ PUSH2 0x57 JUMPI JUMPDEST PUSH1 0x0 DUP1 REVERT JUMPDEST PUSH2 0x55 PUSH1 0x4 DUP1 CALLDATASIZE SUB DUP2 ADD SWAP1 PUSH2 0x50 SWAP2 SWAP1 PUSH2 0x274 JUMP JUMPDEST PUSH2 0x75 JUMP JUMPDEST STOP JUMPDEST PUSH2 0x5F PUSH2 0x88 JUMP JUMPDEST PUSH1 0x40 MLOAD PUSH2 0x6C SWAP2 SWAP1 PUSH2 0x33C JUMP JUMPDEST PUSH1 0x40 MLOAD DUP1 SWAP2 SUB SWAP1 RETURN JUMPDEST DUP1 PUSH1 0x0 SWAP1 DUP2 PUSH2 0x84 SWAP2 SWAP1 PUSH2 0x574 JUMP JUMPDEST POP POP JUMP JUMPDEST PUSH1 0x60 PUSH1 0x0 DUP1 SLOAD PUSH2 0x97 SWAP1 PUSH2 0x38D JUMP JUMPDEST DUP1 PUSH1 0x1F ADD PUSH1 0x20 DUP1 SWAP2 DIV MUL PUSH1 0x20 ADD PUSH1 0x40 MLOAD SWAP1 DUP2 ADD PUSH1 0x40 MSTORE DUP1 SWAP3 SWAP2 SWAP1 DUP2 DUP2 MSTORE PUSH1 0x20 ADD DUP3 DUP1 SLOAD PUSH2 0xC3 SWAP1 PUSH2 0x38D JUMP JUMPDEST DUP1 ISZERO PUSH2 0x110 JUMPI DUP1 PUSH1 0x1F LT PUSH2 0xE5 JUMPI PUSH2 0x100 DUP1 DUP4 SLOAD DIV MUL DUP4 MSTORE SWAP2 PUSH1 0x20 ADD SWAP2 PUSH2 0x110 JUMP JUMPDEST DUP3 ADD SWAP2 SWAP1 PUSH1 0x0 MSTORE PUSH1 0x20 PUSH1 0x0 KECCAK256 SWAP1 JUMPDEST DUP2 SLOAD DUP2 MSTORE SWAP1 PUSH1 0x1 ADD SWAP1 PUSH1 0x20 ADD DUP1 DUP4 GT PUSH2 0xF3 JUMPI DUP3 SWAP1 SUB PUSH1 0x1F AND DUP3 ADD SWAP2 JUMPDEST POP POP POP POP POP SWAP1 POP SWAP1 JUMP JUMPDEST PUSH1 0x0 PUSH1 0x40 MLOAD SWAP1 POP SWAP1 JUMP JUMPDEST PUSH1 0x0 DUP1 REVERT JUMPDEST PUSH1 0x0 DUP1 REVERT JUMPDEST PUSH1 0x0 DUP1 REVERT JUMPDEST PUSH1 0x0 DUP1 REVERT JUMPDEST PUSH1 0x0 PUSH1 0x1F NOT PUSH1 0x1F DUP4 ADD AND SWAP1 POP SWAP2 SWAP1 POP JUMP JUMPDEST PUSH32 0x4E487B7100000000000000000000000000000000000000000000000000000000 PUSH1 0x0 MSTORE PUSH1 0x41 PUSH1 0x4 MSTORE PUSH1 0x24 PUSH1 0x0 REVERT JUMPDEST PUSH2 0x181 DUP3 PUSH2 0x138 JUMP JUMPDEST DUP2 ADD DUP2 DUP2 LT PUSH8 0xFFFFFFFFFFFFFFFF DUP3 GT OR ISZERO PUSH2 0x1A0 JUMPI PUSH2 0x19F PUSH2 0x149 JUMP JUMPDEST JUMPDEST DUP1 PUSH1 0x40 MSTORE POP POP POP JUMP JUMPDEST PUSH1 0x0 PUSH2 0x1B3 PUSH2 0x11A JUMP JUMPDEST SWAP1 POP PUSH2 0x1BF DUP3 DUP3 PUSH2 0x178 JUMP JUMPDEST SWAP2 SWAP1 POP JUMP JUMPDEST PUSH1 0x0 PUSH8 0xFFFFFFFFFFFFFFFF DUP3 GT ISZERO PUSH2 0x1DF JUMPI PUSH2 0x1DE PUSH2 0x149 JUMP JUMPDEST JUMPDEST PUSH2 0x1E8 DUP3 PUSH2 0x138 JUMP JUMPDEST SWAP1 POP PUSH1 0x20 DUP2 ADD SWAP1 POP SWAP2 SWAP1 POP JUMP JUMPDEST DUP3 DUP2 DUP4 CALLDATACOPY PUSH1 0x0 DUP4 DUP4 ADD MSTORE POP POP POP JUMP JUMPDEST PUSH1 0x0 PUSH2 0x217 PUSH2 0x212 DUP5 PUSH2 0x1C4 JUMP JUMPDEST PUSH2 0x1A9 JUMP JUMPDEST SWAP1 POP DUP3 DUP2 MSTORE PUSH1 0x20 DUP2 ADD DUP5 DUP5 DUP5 ADD GT ISZERO PUSH2 0x233 JUMPI PUSH2 0x232 PUSH2 0x133 JUMP JUMPDEST JUMPDEST PUSH2 0x23E DUP5 DUP3 DUP6 PUSH2 0x1F5 JUMP JUMPDEST POP SWAP4 SWAP3 POP POP POP JUMP JUMPDEST PUSH1 0x0 DUP3 PUSH1 0x1F DUP4 ADD SLT PUSH2 0x25B JUMPI PUSH2 0x25A PUSH2 0x12E JUMP JUMPDEST JUMPDEST DUP2 CALLDATALOAD PUSH2 0x26B DUP5 DUP3 PUSH1 0x20 DUP7 ADD PUSH2 0x204 JUMP JUMPDEST SWAP2 POP POP SWAP3 SWAP2 POP POP JUMP JUMPDEST PUSH1 0x0 PUSH1 0x20 DUP3 DUP5 SUB SLT ISZERO PUSH2 0x28A JUMPI PUSH2 0x289 PUSH2 0x124 JUMP JUMPDEST JUMPDEST PUSH1 0x0 DUP3 ADD CALLDATALOAD PUSH8 0xFFFFFFFFFFFFFFFF DUP2 GT ISZERO PUSH2 0x2A8 JUMPI PUSH2 0x2A7 PUSH2 0x129 JUMP JUMPDEST JUMPDEST PUSH2 0x2B4 DUP5 DUP3 DUP6 ADD PUSH2 0x246 JUMP JUMPDEST SWAP2 POP POP SWAP3 SWAP2 POP POP JUMP JUMPDEST PUSH1 0x0 DUP2 MLOAD SWAP1 POP SWAP2 SWAP1 POP JUMP JUMPDEST PUSH1 0x0 DUP3 DUP3 MSTORE PUSH1 0x20 DUP3 ADD SWAP1 POP SWAP3 SWAP2 POP POP JUMP JUMPDEST PUSH1 0x0 JUMPDEST DUP4 DUP2 LT ISZERO PUSH2 0x2F7 JUMPI DUP1 DUP3 ADD MLOAD DUP2 DUP5 ADD MSTORE PUSH1 0x20 DUP2 ADD SWAP1 POP PUSH2 0x2DC JUMP JUMPDEST PUSH1 0x0 DUP5 DUP5 ADD MSTORE POP POP POP POP JUMP JUMPDEST PUSH1 0x0 PUSH2 0x30E DUP3 PUSH2 0x2BD JUMP JUMPDEST PUSH2 0x318 DUP2 DUP6 PUSH2 0x2C8 JUMP JUMPDEST SWAP4 POP PUSH2 0x328 DUP2 DUP6 PUSH1 0x20 DUP7 ADD PUSH2 0x2D9 JUMP JUMPDEST PUSH2 0x331 DUP2 PUSH2 0x138 JUMP JUMPDEST DUP5 ADD SWAP2 POP POP SWAP3 SWAP2 POP POP JUMP JUMPDEST PUSH1 0x0 PUSH1 0x20 DUP3 ADD SWAP1 POP DUP2 DUP2 SUB PUSH1 0x0 DUP4 ADD MSTORE PUSH2 0x356 DUP2 DUP5 PUSH2 0x303 JUMP JUMPDEST SWAP1 POP SWAP3 SWAP2 POP POP JUMP JUMPDEST PUSH32 0x4E487B7100000000000000000000000000000000000000000000000000000000 PUSH1 0x0 MSTORE PUSH1 0x22 PUSH1 0x4 MSTORE PUSH1 0x24 PUSH1 0x0 REVERT JUMPDEST PUSH1 0x0 PUSH1 0x2 DUP3 DIV SWAP1 POP PUSH1 0x1 DUP3 AND DUP1 PUSH2 0x3A5 JUMPI PUSH1 0x7F DUP3 AND SWAP2 POP JUMPDEST PUSH1 0x20 DUP3 LT DUP2 SUB PUSH2 0x3B8 JUMPI PUSH2 0x3B7 PUSH2 0x35E JUMP JUMPDEST JUMPDEST POP SWAP2 SWAP1 POP JUMP JUMPDEST PUSH1 0x0 DUP2 SWAP1 POP DUP2 PUSH1 0x0 MSTORE PUSH1 0x20 PUSH1 0x0 KECCAK256 SWAP1 POP SWAP2 SWAP1 POP JUMP JUMPDEST PUSH1 0x0 PUSH1 0x20 PUSH1 0x1F DUP4 ADD DIV SWAP1 POP SWAP2 SWAP1 POP JUMP JUMPDEST PUSH1 0x0 DUP3 DUP3 SHL SWAP1 POP SWAP3 SWAP2 POP POP JUMP JUMPDEST PUSH1 0x0 PUSH1 0x8 DUP4 MUL PUSH2 0x420 PUSH32 0xFFFFFFFFFFFFFFFFFFFFFFFFFFFFFFFFFFFFFFFFFFFFFFFFFFFFFFFFFFFFFFFF DUP3 PUSH2 0x3E3 JUMP JUMPDEST PUSH2 0x42A DUP7 DUP4 PUSH2 0x3E3 JUMP JUMPDEST SWAP6 POP DUP1 NOT DUP5 AND SWAP4 POP DUP1 DUP7 AND DUP5 OR SWAP3 POP POP POP SWAP4 SWAP3 POP POP POP JUMP JUMPDEST PUSH1 0x0 DUP2 SWAP1 POP SWAP2 SWAP1 POP JUMP JUMPDEST PUSH1 0x0 DUP2 SWAP1 POP SWAP2 SWAP1 POP JUMP JUMPDEST PUSH1 0x0 PUSH2 0x471 PUSH2 0x46C PUSH2 0x467 DUP5 PUSH2 0x442 JUMP JUMPDEST PUSH2 0x44C JUMP JUMPDEST PUSH2 0x442 JUMP JUMPDEST SWAP1 POP SWAP2 SWAP1 POP JUMP JUMPDEST PUSH1 0x0 DUP2 SWAP1 POP SWAP2 SWAP1 POP JUMP JUMPDEST PUSH2 0x48B DUP4 PUSH2 0x456 JUMP JUMPDEST PUSH2 0x49F PUSH2 0x497 DUP3 PUSH2 0x478 JUMP JUMPDEST DUP5 DUP5 SLOAD PUSH2 0x3F0 JUMP JUMPDEST DUP3 SSTORE POP POP POP POP JUMP JUMPDEST PUSH1 0x0 SWAP1 JUMP JUMPDEST PUSH2 0x4B4 PUSH2 0x4A7 JUMP JUMPDEST PUSH2 0x4BF DUP2 DUP5 DUP5 PUSH2 0x482 JUMP JUMPDEST POP POP POP JUMP JUMPDEST JUMPDEST DUP2 DUP2 LT ISZERO PUSH2 0x4E3 JUMPI PUSH2 0x4D8 PUSH1 0x0 DUP3 PUSH2 0x4AC JUMP JUMPDEST PUSH1 0x1 DUP2 ADD SWAP1 POP PUSH2 0x4C5 JUMP JUMPDEST POP POP JUMP JUMPDEST PUSH1 0x1F DUP3 GT ISZERO PUSH2 0x528 JUMPI PUSH2 0x4F9 DUP2 PUSH2 0x3BE JUMP JUMPDEST PUSH2 0x502 DUP5 PUSH2 0x3D3 JUMP JUMPDEST DUP2 ADD PUSH1 0x20 DUP6 LT ISZERO PUSH2 0x511 JUMPI DUP2 SWAP1 POP JUMPDEST PUSH2 0x525 PUSH2 0x51D DUP6 PUSH2 0x3D3 JUMP JUMPDEST DUP4 ADD DUP3 PUSH2 0x4C4 JUMP JUMPDEST POP POP JUMPDEST POP POP POP JUMP JUMPDEST PUSH1 0x0 DUP3 DUP3 SHR SWAP1 POP SWAP3 SWAP2 POP POP JUMP JUMPDEST PUSH1 0x0 PUSH2 0x54B PUSH1 0x0 NOT DUP5 PUSH1 0x8 MUL PUSH2 0x52D JUMP JUMPDEST NOT DUP1 DUP4 AND SWAP2 POP POP SWAP3 SWAP2 POP POP JUMP JUMPDEST PUSH1 0x0 PUSH2 0x564 DUP4 DUP4 PUSH2 0x53A JUMP JUMPDEST SWAP2 POP DUP3 PUSH1 0x2 MUL DUP3 OR SWAP1 POP SWAP3 SWAP2 POP POP JUMP JUMPDEST PUSH2 0x57D DUP3 PUSH2 0x2BD JUMP JUMPDEST PUSH8 0xFFFFFFFFFFFFFFFF DUP2 GT ISZERO PUSH2 0x596 JUMPI PUSH2 0x595 PUSH2 0x149 JUMP JUMPDEST JUMPDEST PUSH2 0x5A0 DUP3 SLOAD PUSH2 0x38D JUMP JUMPDEST PUSH2 0x5AB DUP3 DUP3 DUP6 PUSH2 0x4E7 JUMP JUMPDEST PUSH1 0x0 PUSH1 0x20 SWAP1 POP PUSH1 0x1F DUP4 GT PUSH1 0x1 DUP2 EQ PUSH2 0x5DE JUMPI PUSH1 0x0 DUP5 ISZERO PUSH2 0x5CC JUMPI DUP3 DUP8 ADD MLOAD SWAP1 POP JUMPDEST PUSH2 0x5D6 DUP6 DUP3 PUSH2 0x558 JUMP JUMPDEST DUP7 SSTORE POP PUSH2 0x63E JUMP JUMPDEST PUSH1 0x1F NOT DUP5 AND PUSH2 0x5EC DUP7 PUSH2 0x3BE JUMP JUMPDEST PUSH1 0x0 JUMPDEST DUP3 DUP2 LT ISZERO PUSH2 0x614 JUMPI DUP5 DUP10 ADD MLOAD DUP3 SSTORE PUSH1 0x1 DUP3 ADD SWAP2 POP PUSH1 0x20 DUP6 ADD SWAP5 POP PUSH1 0x20 DUP2 ADD SWAP1 POP PUSH2 0x5EF JUMP JUMPDEST DUP7 DUP4 LT ISZERO PUSH2 0x631 JUMPI DUP5 DUP10 ADD MLOAD PUSH2 0x62D PUSH1 0x1F DUP10 AND DUP3 PUSH2 0x53A JUMP JUMPDEST DUP4 SSTORE POP JUMPDEST PUSH1 0x1 PUSH1 0x2 DUP9 MUL ADD DUP9 SSTORE POP POP POP JUMPDEST POP POP POP POP POP POP JUMP INVALID LOG2 PUSH5 0x6970667358 0x22 SLT KECCAK256 0xBA EQ 0xBD 0xB1 SWAP9 DUP2 LOG2 PUSH11 0xA1D55C4661BF95F1B1C967 0xC7 0xD7 PUSH3 0x3CB0ED TIMESTAMP 0xC4 SWAP6 0x4A 0x2E 0xBD 0xA9 PUSH5 0x736F6C6343 STOP ADDMOD EQ STOP CALLER "},"methodIdentifiers":{"getMessage()":"ce6d41de","setMessage(string)":"368b8772"}}}}}