{
  "_format": "hh-sol-artifact-1",
  "contractName": "Functions",
  "sourceName": "contracts/03_Functions.sol",
  "abi": [
    {
      "inputs": [],
      "stateMutability": "nonpayable",
      "type": "constructor"
    },
    {
      "inputs": [
        {
          "internalType": "uint256",
          "name": "requested",
          "type": "uint256"
        },
        {
          "internalType": "uint256",
          "name": "available",
          "type": "uint256"
        }
      ],
      "name": "InsufficientBalance",
      "type": "error"
    },
    {
      "inputs": [
        {
          "internalType": "uint256",
          "name": "a",
          "type": "uint256"
        },
        {
          "internalType": "uint256",
          "name": "b",
          "type": "uint256"
        }
      ],
      "name": "add",
      "outputs": [
        {
          "internalType": "uint256",
          "name": "",
          "type": "uint256"
        }
      ],
      "stateMutability": "pure",
      "type": "function"
    },
    {
      "inputs": [],
      "name": "adminFunction",
      "outputs": [],
      "stateMutability": "nonpayable",
      "type": "function"
    },
    {
      "inputs": [],
      "name": "deposit",
      "outputs": [],
      "stateMutability": "payable",
      "type": "function"
    },
    {
      "inputs": [
        {
          "internalType": "uint256",
          "name": "a",
          "type": "uint256"
        },
        {
          "internalType": "uint256",
          "name": "b",
          "type": "uint256"
        }
      ],
      "name": "divide",
      "outputs": [
        {
          "internalType": "uint256",
          "name": "",
          "type": "uint256"
        }
      ],
      "stateMutability": "pure",
      "type": "function"
    },
    {
      "inputs": [],
      "name": "getBalance",
      "outputs": [
        {
          "internalType": "uint256",
          "name": "",
          "type": "uint256"
        }
      ],
      "stateMutability": "view",
      "type": "function"
    },
    {
      "inputs": [],
      "name": "getValue",
      "outputs": [
        {
          "internalType": "uint256",
          "name": "",
          "type": "uint256"
        }
      ],
      "stateMutability": "view",
      "type": "function"
    },
    {
      "inputs": [],
      "name": "namedReturns",
      "outputs": [
        {
          "internalType": "uint256",
          "name": "x",
          "type": "uint256"
        },
        {
          "internalType": "bool",
          "name": "y",
          "type": "bool"
        },
        {
          "internalType": "string",
          "name": "z",
          "type": "string"
        }
      ],
      "stateMutability": "pure",
      "type": "function"
    },
    {
      "inputs": [],
      "name": "owner",
      "outputs": [
        {
          "internalType": "address",
          "name": "",
          "type": "address"
        }
      ],
      "stateMutability": "view",
      "type": "function"
    },
    {
      "inputs": [],
      "name": "returnMultiple",
      "outputs": [
        {
          "internalType": "uint256",
          "name": "",
          "type": "uint256"
        },
        {
          "internalType": "bool",
          "name": "",
          "type": "bool"
        },
        {
          "internalType": "string",
          "name": "",
          "type": "string"
        }
      ],
      "stateMutability": "pure",
      "type": "function"
    },
    {
      "inputs": [
        {
          "internalType": "uint256",
          "name": "_value",
          "type": "uint256"
        }
      ],
      "name": "setValue",
      "outputs": [],
      "stateMutability": "nonpayable",
      "type": "function"
    },
    {
      "inputs": [],
      "name": "value",
      "outputs": [
        {
          "internalType": "uint256",
          "name": "",
          "type": "uint256"
        }
      ],
      "stateMutability": "view",
      "type": "function"
    },
    {
      "inputs": [
        {
          "internalType": "uint256",
          "name": "amount",
          "type": "uint256"
        }
      ],
      "name": "withdraw",
      "outputs": [],
      "stateMutability": "nonpayable",
      "type": "function"
    }
  ],
  "bytecode": "0x6080604052600a60005534801561001557600080fd5b5033600160006101000a81548173ffffffffffffffffffffffffffffffffffffffff021916908373ffffffffffffffffffffffffffffffffffffffff16021790555061094c806100666000396000f3fe6080604052600436106100a75760003560e01c8063771602f711610064578063771602f7146101965780638da5cb5b146101d3578063d0e30db0146101fe578063e61e400814610208578063e9f305f414610235578063f88e9fbf14610262576100a7565b806312065fe0146100ac57806320965255146100d75780632e1a7d4d146101025780633fa4f2451461012b578063552410771461015657806372ed99871461017f575b600080fd5b3480156100b857600080fd5b506100c161029f565b6040516100ce919061052e565b60405180910390f35b3480156100e357600080fd5b506100ec6102a7565b6040516100f9919061052e565b60405180910390f35b34801561010e57600080fd5b506101296004803603810190610124919061057a565b6102b0565b005b34801561013757600080fd5b50610140610341565b60405161014d919061052e565b60405180910390f35b34801561016257600080fd5b5061017d6004803603810190610178919061057a565b610347565b005b34801561018b57600080fd5b50610194610351565b005b3480156101a257600080fd5b506101bd60048036038101906101b891906105a7565b6103eb565b6040516101ca919061052e565b60405180910390f35b3480156101df57600080fd5b506101e8610401565b6040516101f59190610628565b60405180910390f35b610206610427565b005b34801561021457600080fd5b5061021d610429565b60405161022c939291906106ee565b60405180910390f35b34801561024157600080fd5b5061024a610473565b604051610259939291906106ee565b60405180910390f35b34801561026e57600080fd5b50610289600480360381019061028491906105a7565b6104bd565b604051610296919061052e565b60405180910390f35b600047905090565b60008054905090565b478111156102f75780476040517fcf4791810000000000000000000000000000000000000000000000000000000081526004016102ee92919061072c565b60405180910390fd5b3373ffffffffffffffffffffffffffffffffffffffff166108fc829081150290604051600060405180830381858888f1935050505015801561033d573d6000803e3d6000fd5b5050565b60005481565b8060008190555050565b600160009054906101000a900473ffffffffffffffffffffffffffffffffffffffff1673ffffffffffffffffffffffffffffffffffffffff163373ffffffffffffffffffffffffffffffffffffffff16146103e1576040517f08c379a00000000000000000000000000000000000000000000000000000000081526004016103d8906107c7565b60405180910390fd5b6064600081905550565b600081836103f99190610816565b905092915050565b600160009054906101000a900473ffffffffffffffffffffffffffffffffffffffff1681565b565b6000806060600560016040518060400160405280600581526020017f48656c6c6f000000000000000000000000000000000000000000000000000000815250925092509250909192565b600080606060059250600191506040518060400160405280600581526020017f48656c6c6f0000000000000000000000000000000000000000000000000000008152509050909192565b6000808211610501576040517f08c379a00000000000000000000000000000000000000000000000000000000081526004016104f890610896565b60405180910390fd5b818361050d91906108e5565b905092915050565b6000819050919050565b61052881610515565b82525050565b6000602082019050610543600083018461051f565b92915050565b600080fd5b61055781610515565b811461056257600080fd5b50565b6000813590506105748161054e565b92915050565b6000602082840312156105905761058f610549565b5b600061059e84828501610565565b91505092915050565b600080604083850312156105be576105bd610549565b5b60006105cc85828601610565565b92505060206105dd85828601610565565b9150509250929050565b600073ffffffffffffffffffffffffffffffffffffffff82169050919050565b6000610612826105e7565b9050919050565b61062281610607565b82525050565b600060208201905061063d6000830184610619565b92915050565b60008115159050919050565b61065881610643565b82525050565b600081519050919050565b600082825260208201905092915050565b60005b8381101561069857808201518184015260208101905061067d565b60008484015250505050565b6000601f19601f8301169050919050565b60006106c08261065e565b6106ca8185610669565b93506106da81856020860161067a565b6106e3816106a4565b840191505092915050565b6000606082019050610703600083018661051f565b610710602083018561064f565b818103604083015261072281846106b5565b9050949350505050565b6000604082019050610741600083018561051f565b61074e602083018461051f565b9392505050565b7f4f6e6c79206f776e65722063616e2063616c6c20746869732066756e6374696f60008201527f6e00000000000000000000000000000000000000000000000000000000000000602082015250565b60006107b1602183610669565b91506107bc82610755565b604082019050919050565b600060208201905081810360008301526107e0816107a4565b9050919050565b7f4e487b7100000000000000000000000000000000000000000000000000000000600052601160045260246000fd5b600061082182610515565b915061082c83610515565b9250828201905080821115610844576108436107e7565b5b92915050565b7f43616e6e6f7420646976696465206279207a65726f0000000000000000000000600082015250565b6000610880601583610669565b915061088b8261084a565b602082019050919050565b600060208201905081810360008301526108af81610873565b9050919050565b7f4e487b7100000000000000000000000000000000000000000000000000000000600052601260045260246000fd5b60006108f082610515565b91506108fb83610515565b92508261090b5761090a6108b6565b5b82820490509291505056fea2646970667358221220775e28080781b69041ce29dae456ca8beac7f5c175e41fd14cf2ff2d0d13f25064736f6c63430008140033",
  "linkReferences": {},
  "deployedLinkReferences": {}
}