{
  "_format": "hh-sol-artifact-1",
  "contractName": "UsingLibraries",
  "sourceName": "contracts/08_Libraries.sol",
  "abi": [
    {
      "inputs": [
        {
          "internalType": "uint256",
          "name": "number",
          "type": "uint256"
        }
      ],
      "name": "addNumber",
      "outputs": [],
      "stateMutability": "nonpayable",
      "type": "function"
    },
    {
      "inputs": [
        {
          "internalType": "uint256",
          "name": "amount",
          "type": "uint256"
        }
      ],
      "name": "addValue",
      "outputs": [],
      "stateMutability": "nonpayable",
      "type": "function"
    },
    {
      "inputs": [
        {
          "internalType": "address",
          "name": "addr",
          "type": "address"
        }
      ],
      "name": "checkAddress",
      "outputs": [
        {
          "internalType": "bool",
          "name": "",
          "type": "bool"
        }
      ],
      "stateMutability": "view",
      "type": "function"
    },
    {
      "inputs": [
        {
          "internalType": "uint256",
          "name": "number",
          "type": "uint256"
        }
      ],
      "name": "containsNumber",
      "outputs": [
        {
          "internalType": "bool",
          "name": "",
          "type": "bool"
        }
      ],
      "stateMutability": "view",
      "type": "function"
    },
    {
      "inputs": [
        {
          "internalType": "uint256",
          "name": "",
          "type": "uint256"
        }
      ],
      "name": "numbers",
      "outputs": [
        {
          "internalType": "uint256",
          "name": "",
          "type": "uint256"
        }
      ],
      "stateMutability": "view",
      "type": "function"
    },
    {
      "inputs": [
        {
          "internalType": "uint256",
          "name": "number",
          "type": "uint256"
        }
      ],
      "name": "removeNumber",
      "outputs": [
        {
          "internalType": "bool",
          "name": "",
          "type": "bool"
        }
      ],
      "stateMutability": "nonpayable",
      "type": "function"
    },
    {
      "inputs": [
        {
          "internalType": "address payable",
          "name": "recipient",
          "type": "address"
        },
        {
          "internalType": "uint256",
          "name": "amount",
          "type": "uint256"
        }
      ],
      "name": "sendEther",
      "outputs": [],
      "stateMutability": "nonpayable",
      "type": "function"
    },
    {
      "inputs": [
        {
          "internalType": "uint256",
          "name": "amount",
          "type": "uint256"
        }
      ],
      "name": "subtractValue",
      "outputs": [],
      "stateMutability": "nonpayable",
      "type": "function"
    },
    {
      "inputs": [],
      "name": "value",
      "outputs": [
        {
          "internalType": "uint256",
          "name": "",
          "type": "uint256"
        }
      ],
      "stateMutability": "view",
      "type": "function"
    }
  ],
  "bytecode": "0x608060405234801561001057600080fd5b50610b61806100206000396000f3fe608060405234801561001057600080fd5b50600436106100935760003560e01c8063c1756a2c11610066578063c1756a2c14610132578063d39fa2331461014e578063ee08b1a51461017e578063eea54fb61461019a578063fce68023146101ca57610093565b80630ddcfe8e1461009857806320cfb8b2146100c85780633fa4f245146100f85780635b9af12b14610116575b600080fd5b6100b260048036038101906100ad9190610679565b6101e6565b6040516100bf91906106c1565b60405180910390f35b6100e260048036038101906100dd9190610712565b61020e565b6040516100ef91906106c1565b60405180910390f35b61010061022b565b60405161010d919061074e565b60405180910390f35b610130600480360381019061012b9190610712565b610231565b005b61014c600480360381019061014791906107a7565b61024f565b005b61016860048036038101906101639190610712565b61027c565b604051610175919061074e565b60405180910390f35b61019860048036038101906101939190610712565b6102a0565b005b6101b460048036038101906101af9190610712565b6102be565b6040516101c191906106c1565b60405180910390f35b6101e460048036038101906101df9190610712565b6102db565b005b60006102078273ffffffffffffffffffffffffffffffffffffffff16610307565b9050919050565b600061022482600161031a90919063ffffffff16565b9050919050565b60005481565b6102468160005461037b90919063ffffffff16565b60008190555050565b610278818373ffffffffffffffffffffffffffffffffffffffff166103d990919063ffffffff16565b5050565b6001818154811061028c57600080fd5b906000526020600020016000915090505481565b6102b5816000546104cd90919063ffffffff16565b60008190555050565b60006102d482600161052690919063ffffffff16565b9050919050565b600181908060018154018082558091505060019003906000526020600020016000909190919091505550565b600080823b905060008111915050919050565b600080600090505b838054905081101561036f5782848281548110610342576103416107e7565b5b90600052602060002001540361035c576001915050610375565b808061036790610845565b915050610322565b50600090505b92915050565b600080828461038a919061088d565b9050838110156103cf576040517f08c379a00000000000000000000000000000000000000000000000000000000081526004016103c69061091e565b60405180910390fd5b8091505092915050565b8047101561041c576040517f08c379a00000000000000000000000000000000000000000000000000000000081526004016104139061098a565b60405180910390fd5b60008273ffffffffffffffffffffffffffffffffffffffff1682604051610442906109db565b60006040518083038185875af1925050503d806000811461047f576040519150601f19603f3d011682016040523d82523d6000602084013e610484565b606091505b50509050806104c8576040517f08c379a00000000000000000000000000000000000000000000000000000000081526004016104bf90610a3c565b60405180910390fd5b505050565b600082821115610512576040517f08c379a000000000000000000000000000000000000000000000000000000000815260040161050990610aa8565b60405180910390fd5b818361051e9190610ac8565b905092915050565b600080600090505b838054905081101561060a578284828154811061054e5761054d6107e7565b5b9060005260206000200154036105f7576001848054905061056f9190610ac8565b8110156105c65783600185805490506105889190610ac8565b81548110610599576105986107e7565b5b90600052602060002001548482815481106105b7576105b66107e7565b5b90600052602060002001819055505b838054806105d7576105d6610afc565b5b600190038181906000526020600020016000905590556001915050610610565b808061060290610845565b91505061052e565b50600090505b92915050565b600080fd5b600073ffffffffffffffffffffffffffffffffffffffff82169050919050565b60006106468261061b565b9050919050565b6106568161063b565b811461066157600080fd5b50565b6000813590506106738161064d565b92915050565b60006020828403121561068f5761068e610616565b5b600061069d84828501610664565b91505092915050565b60008115159050919050565b6106bb816106a6565b82525050565b60006020820190506106d660008301846106b2565b92915050565b6000819050919050565b6106ef816106dc565b81146106fa57600080fd5b50565b60008135905061070c816106e6565b92915050565b60006020828403121561072857610727610616565b5b6000610736848285016106fd565b91505092915050565b610748816106dc565b82525050565b6000602082019050610763600083018461073f565b92915050565b60006107748261061b565b9050919050565b61078481610769565b811461078f57600080fd5b50565b6000813590506107a18161077b565b92915050565b600080604083850312156107be576107bd610616565b5b60006107cc85828601610792565b92505060206107dd858286016106fd565b9150509250929050565b7f4e487b7100000000000000000000000000000000000000000000000000000000600052603260045260246000fd5b7f4e487b7100000000000000000000000000000000000000000000000000000000600052601160045260246000fd5b6000610850826106dc565b91507fffffffffffffffffffffffffffffffffffffffffffffffffffffffffffffffff820361088257610881610816565b5b600182019050919050565b6000610898826106dc565b91506108a3836106dc565b92508282019050808211156108bb576108ba610816565b5b92915050565b600082825260208201905092915050565b7f536166654d6174683a206164646974696f6e206f766572666c6f770000000000600082015250565b6000610908601b836108c1565b9150610913826108d2565b602082019050919050565b60006020820190508181036000830152610937816108fb565b9050919050565b7f416464726573733a20696e73756666696369656e742062616c616e6365000000600082015250565b6000610974601d836108c1565b915061097f8261093e565b602082019050919050565b600060208201905081810360008301526109a381610967565b9050919050565b600081905092915050565b50565b60006109c56000836109aa565b91506109d0826109b5565b600082019050919050565b60006109e6826109b8565b9150819050919050565b7f416464726573733a20756e61626c6520746f2073656e642076616c7565000000600082015250565b6000610a26601d836108c1565b9150610a31826109f0565b602082019050919050565b60006020820190508181036000830152610a5581610a19565b9050919050565b7f536166654d6174683a207375627472616374696f6e206f766572666c6f770000600082015250565b6000610a92601e836108c1565b9150610a9d82610a5c565b602082019050919050565b60006020820190508181036000830152610ac181610a85565b9050919050565b6000610ad3826106dc565b9150610ade836106dc565b9250828203905081811115610af657610af5610816565b5b92915050565b7f4e487b7100000000000000000000000000000000000000000000000000000000600052603160045260246000fdfea264697066735822122068127398b911ab02976fd429106acd7fa7e244d80bb96b9d5f37420173b3177064736f6c63430008140033",
  "linkReferences": {},
  "deployedLinkReferences": {}
}