{
  "_format": "hh-sol-artifact-1",
  "contractName": "UsingStructLib",
  "sourceName": "contracts/08_Libraries.sol",
  "abi": [
    {
      "inputs": [],
      "name": "data",
      "outputs": [
        {
          "internalType": "uint256",
          "name": "a",
          "type": "uint256"
        },
        {
          "internalType": "uint256",
          "name": "b",
          "type": "uint256"
        },
        {
          "internalType": "bool",
          "name": "flag",
          "type": "bool"
        }
      ],
      "stateMutability": "view",
      "type": "function"
    },
    {
      "inputs": [],
      "name": "getDataSum",
      "outputs": [
        {
          "internalType": "uint256",
          "name": "",
          "type": "uint256"
        }
      ],
      "stateMutability": "view",
      "type": "function"
    },
    {
      "inputs": [
        {
          "internalType": "uint256",
          "name": "_a",
          "type": "uint256"
        },
        {
          "internalType": "uint256",
          "name": "_b",
          "type": "uint256"
        }
      ],
      "name": "setData",
      "outputs": [],
      "stateMutability": "nonpayable",
      "type": "function"
    }
  ],
  "bytecode": "0x608060405234801561001057600080fd5b506102d1806100206000396000f3fe608060405234801561001057600080fd5b50600436106100415760003560e01c80634848b1a51461004657806373d4a13a14610062578063e393d33f14610082575b600080fd5b610060600480360381019061005b919061017c565b6100a0565b005b61006a6100ba565b604051610079939291906101e6565b60405180910390f35b61008a6100df565b604051610097919061021d565b60405180910390f35b6100b6828260006100f09092919063ffffffff16565b5050565b60008060000154908060010154908060020160009054906101000a900460ff16905083565b60006100eb6000610124565b905090565b81836000018190555080836001018190555060018360020160006101000a81548160ff021916908315150217905550505050565b60008160010154826000015461013a9190610267565b9050919050565b600080fd5b6000819050919050565b61015981610146565b811461016457600080fd5b50565b60008135905061017681610150565b92915050565b6000806040838503121561019357610192610141565b5b60006101a185828601610167565b92505060206101b285828601610167565b9150509250929050565b6101c581610146565b82525050565b60008115159050919050565b6101e0816101cb565b82525050565b60006060820190506101fb60008301866101bc565b61020860208301856101bc565b61021560408301846101d7565b949350505050565b600060208201905061023260008301846101bc565b92915050565b7f4e487b7100000000000000000000000000000000000000000000000000000000600052601160045260246000fd5b600061027282610146565b915061027d83610146565b925082820190508082111561029557610294610238565b5b9291505056fea26469706673582212207471b72b815a6bcbc3f09682b2bd6ce0c51d6d12951f9237e2e1fdeaa4e9517364736f6c63430008140033",
  "linkReferences": {},
  "deployedLinkReferences": {}
}