{
  "_format": "hh-sol-artifact-1",
  "contractName": "TokenSender",
  "sourceName": "contracts/07_Interfaces.sol",
  "abi": [
    {
      "inputs": [
        {
          "internalType": "address",
          "name": "tokenAddress",
          "type": "address"
        },
        {
          "internalType": "address",
          "name": "account",
          "type": "address"
        }
      ],
      "name": "getTokenBalance",
      "outputs": [
        {
          "internalType": "uint256",
          "name": "",
          "type": "uint256"
        }
      ],
      "stateMutability": "view",
      "type": "function"
    },
    {
      "inputs": [
        {
          "internalType": "address",
          "name": "tokenAddress",
          "type": "address"
        },
        {
          "internalType": "address",
          "name": "to",
          "type": "address"
        },
        {
          "internalType": "uint256",
          "name": "amount",
          "type": "uint256"
        }
      ],
      "name": "sendTokens",
      "outputs": [],
      "stateMutability": "nonpayable",
      "type": "function"
    }
  ],
  "bytecode": "0x608060405234801561001057600080fd5b506104f1806100206000396000f3fe608060405234801561001057600080fd5b50600436106100365760003560e01c8063c489744b1461003b578063e6d66ac81461006b575b600080fd5b61005560048036038101906100509190610243565b610087565b604051610062919061029c565b60405180910390f35b610085600480360381019061008091906102e3565b610110565b005b6000808390508073ffffffffffffffffffffffffffffffffffffffff166370a08231846040518263ffffffff1660e01b81526004016100c69190610345565b602060405180830381865afa1580156100e3573d6000803e3d6000fd5b505050506040513d601f19601f820116820180604052508101906101079190610375565b91505092915050565b600083905060008173ffffffffffffffffffffffffffffffffffffffff166323b872dd3386866040518463ffffffff1660e01b8152600401610154939291906103a2565b6020604051808303816000875af1158015610173573d6000803e3d6000fd5b505050506040513d601f19601f820116820180604052508101906101979190610411565b9050806101d9576040517f08c379a00000000000000000000000000000000000000000000000000000000081526004016101d09061049b565b60405180910390fd5b5050505050565b600080fd5b600073ffffffffffffffffffffffffffffffffffffffff82169050919050565b6000610210826101e5565b9050919050565b61022081610205565b811461022b57600080fd5b50565b60008135905061023d81610217565b92915050565b6000806040838503121561025a576102596101e0565b5b60006102688582860161022e565b92505060206102798582860161022e565b9150509250929050565b6000819050919050565b61029681610283565b82525050565b60006020820190506102b1600083018461028d565b92915050565b6102c081610283565b81146102cb57600080fd5b50565b6000813590506102dd816102b7565b92915050565b6000806000606084860312156102fc576102fb6101e0565b5b600061030a8682870161022e565b935050602061031b8682870161022e565b925050604061032c868287016102ce565b9150509250925092565b61033f81610205565b82525050565b600060208201905061035a6000830184610336565b92915050565b60008151905061036f816102b7565b92915050565b60006020828403121561038b5761038a6101e0565b5b600061039984828501610360565b91505092915050565b60006060820190506103b76000830186610336565b6103c46020830185610336565b6103d1604083018461028d565b949350505050565b60008115159050919050565b6103ee816103d9565b81146103f957600080fd5b50565b60008151905061040b816103e5565b92915050565b600060208284031215610427576104266101e0565b5b6000610435848285016103fc565b91505092915050565b600082825260208201905092915050565b7f546f6b656e207472616e73666572206661696c65640000000000000000000000600082015250565b600061048560158361043e565b91506104908261044f565b602082019050919050565b600060208201905081810360008301526104b481610478565b905091905056fea264697066735822122044b346aa3bc5381af820c6e7a02e5c3dc1b9ba6795f05aba1242fea6f5488b1064736f6c63430008140033",
  "linkReferences": {},
  "deployedLinkReferences": {}
}