{
  "_format": "hh-sol-artifact-1",
  "contractName": "Variables",
  "sourceName": "contracts/02_Variables.sol",
  "abi": [
    {
      "inputs": [
        {
          "internalType": "address",
          "name": "",
          "type": "address"
        }
      ],
      "name": "balances",
      "outputs": [
        {
          "internalType": "uint256",
          "name": "",
          "type": "uint256"
        }
      ],
      "stateMutability": "view",
      "type": "function"
    },
    {
      "inputs": [
        {
          "internalType": "uint256",
          "name": "",
          "type": "uint256"
        }
      ],
      "name": "dynamicArray",
      "outputs": [
        {
          "internalType": "uint256",
          "name": "",
          "type": "uint256"
        }
      ],
      "stateMutability": "view",
      "type": "function"
    },
    {
      "inputs": [
        {
          "internalType": "uint256",
          "name": "",
          "type": "uint256"
        }
      ],
      "name": "fixedArray",
      "outputs": [
        {
          "internalType": "uint256",
          "name": "",
          "type": "uint256"
        }
      ],
      "stateMutability": "view",
      "type": "function"
    },
    {
      "inputs": [],
      "name": "getPrivateVar",
      "outputs": [
        {
          "internalType": "uint256",
          "name": "",
          "type": "uint256"
        }
      ],
      "stateMutability": "view",
      "type": "function"
    },
    {
      "inputs": [],
      "name": "localVariables",
      "outputs": [
        {
          "internalType": "uint256",
          "name": "",
          "type": "uint256"
        }
      ],
      "stateMutability": "pure",
      "type": "function"
    },
    {
      "inputs": [],
      "name": "myAddress",
      "outputs": [
        {
          "internalType": "address",
          "name": "",
          "type": "address"
        }
      ],
      "stateMutability": "view",
      "type": "function"
    },
    {
      "inputs": [],
      "name": "myBool",
      "outputs": [
        {
          "internalType": "bool",
          "name": "",
          "type": "bool"
        }
      ],
      "stateMutability": "view",
      "type": "function"
    },
    {
      "inputs": [],
      "name": "myBytes32",
      "outputs": [
        {
          "internalType": "bytes32",
          "name": "",
          "type": "bytes32"
        }
      ],
      "stateMutability": "view",
      "type": "function"
    },
    {
      "inputs": [],
      "name": "myInt",
      "outputs": [
        {
          "internalType": "int256",
          "name": "",
          "type": "int256"
        }
      ],
      "stateMutability": "view",
      "type": "function"
    },
    {
      "inputs": [],
      "name": "myString",
      "outputs": [
        {
          "internalType": "string",
          "name": "",
          "type": "string"
        }
      ],
      "stateMutability": "view",
      "type": "function"
    },
    {
      "inputs": [],
      "name": "myUint",
      "outputs": [
        {
          "internalType": "uint256",
          "name": "",
          "type": "uint256"
        }
      ],
      "stateMutability": "view",
      "type": "function"
    },
    {
      "inputs": [],
      "name": "person",
      "outputs": [
        {
          "internalType": "string",
          "name": "name",
          "type": "string"
        },
        {
          "internalType": "uint256",
          "name": "age",
          "type": "uint256"
        }
      ],
      "stateMutability": "view",
      "type": "function"
    },
    {
      "inputs": [],
      "name": "publicVar",
      "outputs": [
        {
          "internalType": "uint256",
          "name": "",
          "type": "uint256"
        }
      ],
      "stateMutability": "view",
      "type": "function"
    },
    {
      "inputs": [],
      "name": "status",
      "outputs": [
        {
          "internalType": "enum Variables.Status",
          "name": "",
          "type": "uint8"
        }
      ],
      "stateMutability": "view",
      "type": "function"
    }
  ],
  "bytecode": "0x608060405260016000806101000a81548160ff021916908315150217905550607b6001557ffffffffffffffffffffffffffffffffffffffffffffffffffffffffffffffff6600255735b38da6a701c568545dcfcb03fcb875f56beddc4600360006101000a81548173ffffffffffffffffffffffffffffffffffffffff021916908373ffffffffffffffffffffffffffffffffffffffff1602179055506040518060400160405280600e81526020017f48656c6c6f20536f6c696469747900000000000000000000000000000000000081525060049081620000e2919062000577565b507f48656c6c6f0000000000000000000000000000000000000000000000000000006005556000600660006101000a81548160ff0219169083600281111562000130576200012f6200065e565b5b02179055506040518060600160405280600160ff168152602001600260ff168152602001600360ff1681525060079060036200016e9291906200023d565b506040518060600160405280600460ff168152602001600560ff168152602001600660ff168152506008906003620001a892919062000294565b5060405180604001604052806040518060400160405280600581526020017f416c69636500000000000000000000000000000000000000000000000000000081525081526020016019815250600c60008201518160000190816200020d919062000577565b50602082015181600101555050600a600e556014600f55601e6010553480156200023657600080fd5b506200068d565b82805482825590600052602060002090810192821562000281579160200282015b8281111562000280578251829060ff169055916020019190600101906200025e565b5b509050620002909190620002de565b5090565b8260038101928215620002cb579160200282015b82811115620002ca578251829060ff16905591602001919060010190620002a8565b5b509050620002da9190620002de565b5090565b5b80821115620002f9576000816000905550600101620002df565b5090565b600081519050919050565b7f4e487b7100000000000000000000000000000000000000000000000000000000600052604160045260246000fd5b7f4e487b7100000000000000000000000000000000000000000000000000000000600052602260045260246000fd5b600060028204905060018216806200037f57607f821691505b60208210810362000395576200039462000337565b5b50919050565b60008190508160005260206000209050919050565b60006020601f8301049050919050565b600082821b905092915050565b600060088302620003ff7fffffffffffffffffffffffffffffffffffffffffffffffffffffffffffffffff82620003c0565b6200040b8683620003c0565b95508019841693508086168417925050509392505050565b6000819050919050565b6000819050919050565b600062000458620004526200044c8462000423565b6200042d565b62000423565b9050919050565b6000819050919050565b620004748362000437565b6200048c62000483826200045f565b848454620003cd565b825550505050565b600090565b620004a362000494565b620004b081848462000469565b505050565b5b81811015620004d857620004cc60008262000499565b600181019050620004b6565b5050565b601f8211156200052757620004f1816200039b565b620004fc84620003b0565b810160208510156200050c578190505b620005246200051b85620003b0565b830182620004b5565b50505b505050565b600082821c905092915050565b60006200054c600019846008026200052c565b1980831691505092915050565b600062000567838362000539565b9150826002028217905092915050565b6200058282620002fd565b67ffffffffffffffff8111156200059e576200059d62000308565b5b620005aa825462000366565b620005b7828285620004dc565b600060209050601f831160018114620005ef5760008415620005da578287015190505b620005e6858262000559565b86555062000656565b601f198416620005ff866200039b565b60005b82811015620006295784890151825560018201915060208501945060208101905062000602565b8683101562000649578489015162000645601f89168262000539565b8355505b6001600288020188555050505b505050505050565b7f4e487b7100000000000000000000000000000000000000000000000000000000600052602160045260246000fd5b6108c8806200069d6000396000f3fe608060405234801561001057600080fd5b50600436106100ea5760003560e01c80634b3e7e0c1161008c57806377ec2b551161006657806377ec2b551461022d57806379e784d01461024c5780639a5009ac1461026a5780639a9bdca71461029a576100ea565b80634b3e7e0c146101d35780636deecdbe146101f157806374d47d201461020f576100ea565b806326b85ee1116100c857806326b85ee11461014957806327e235e3146101675780632cb777a614610197578063492bfa18146101b5576100ea565b806306540f7e146100ef5780631151fad81461010d578063200d2ed21461012b575b600080fd5b6100f76102ca565b60405161010491906104f2565b60405180910390f35b6101156102d0565b60405161012291906104f2565b60405180910390f35b6101336102d6565b6040516101409190610584565b60405180910390f35b6101516102e9565b60405161015e91906105e0565b60405180910390f35b610181600480360381019061017c919061062c565b61030f565b60405161018e91906104f2565b60405180910390f35b61019f610327565b6040516101ac9190610672565b60405180910390f35b6101bd61032d565b6040516101ca919061071d565b60405180910390f35b6101db6103bb565b6040516101e89190610758565b60405180910390f35b6101f96103c1565b604051610206919061078e565b60405180910390f35b6102176103d2565b60405161022491906104f2565b60405180910390f35b6102356103dc565b6040516102439291906107a9565b60405180910390f35b610254610476565b60405161026191906104f2565b60405180910390f35b610284600480360381019061027f9190610805565b61049a565b60405161029191906104f2565b60405180910390f35b6102b460048036038101906102af9190610805565b6104b5565b6040516102c191906104f2565b60405180910390f35b60015481565b60105481565b600660009054906101000a900460ff1681565b600360009054906101000a900473ffffffffffffffffffffffffffffffffffffffff1681565b600b6020528060005260406000206000915090505481565b60025481565b6004805461033a90610861565b80601f016020809104026020016040519081016040528092919081815260200182805461036690610861565b80156103b35780601f10610388576101008083540402835291602001916103b3565b820191906000526020600020905b81548152906001019060200180831161039657829003601f168201915b505050505081565b60055481565b60008054906101000a900460ff1681565b6000600e54905090565b600c8060000180546103ed90610861565b80601f016020809104026020016040519081016040528092919081815260200182805461041990610861565b80156104665780601f1061043b57610100808354040283529160200191610466565b820191906000526020600020905b81548152906001019060200180831161044957829003601f168201915b5050505050908060010154905082565b6000806101c8905060008015610490578192505050610497565b6000925050505b90565b600881600381106104aa57600080fd5b016000915090505481565b600781815481106104c557600080fd5b906000526020600020016000915090505481565b6000819050919050565b6104ec816104d9565b82525050565b600060208201905061050760008301846104e3565b92915050565b7f4e487b7100000000000000000000000000000000000000000000000000000000600052602160045260246000fd5b6003811061054d5761054c61050d565b5b50565b600081905061055e8261053c565b919050565b600061056e82610550565b9050919050565b61057e81610563565b82525050565b60006020820190506105996000830184610575565b92915050565b600073ffffffffffffffffffffffffffffffffffffffff82169050919050565b60006105ca8261059f565b9050919050565b6105da816105bf565b82525050565b60006020820190506105f560008301846105d1565b92915050565b600080fd5b610609816105bf565b811461061457600080fd5b50565b60008135905061062681610600565b92915050565b600060208284031215610642576106416105fb565b5b600061065084828501610617565b91505092915050565b6000819050919050565b61066c81610659565b82525050565b60006020820190506106876000830184610663565b92915050565b600081519050919050565b600082825260208201905092915050565b60005b838110156106c75780820151818401526020810190506106ac565b60008484015250505050565b6000601f19601f8301169050919050565b60006106ef8261068d565b6106f98185610698565b93506107098185602086016106a9565b610712816106d3565b840191505092915050565b6000602082019050818103600083015261073781846106e4565b905092915050565b6000819050919050565b6107528161073f565b82525050565b600060208201905061076d6000830184610749565b92915050565b60008115159050919050565b61078881610773565b82525050565b60006020820190506107a3600083018461077f565b92915050565b600060408201905081810360008301526107c381856106e4565b90506107d260208301846104e3565b9392505050565b6107e2816104d9565b81146107ed57600080fd5b50565b6000813590506107ff816107d9565b92915050565b60006020828403121561081b5761081a6105fb565b5b6000610829848285016107f0565b91505092915050565b7f4e487b7100000000000000000000000000000000000000000000000000000000600052602260045260246000fd5b6000600282049050600182168061087957607f821691505b60208210810361088c5761088b610832565b5b5091905056fea2646970667358221220bf50d0deca0d31b9c99859831a432b115a3bd032cd7a277699f0bb1bda6fa40b64736f6c63430008140033",
  "linkReferences": {},
  "deployedLinkReferences": {}
}