{
  "_format": "hh-sol-artifact-1",
  "contractName": "Modifiers",
  "sourceName": "contracts/04_Modifiers.sol",
  "abi": [
    {
      "inputs": [],
      "stateMutability": "nonpayable",
      "type": "constructor"
    },
    {
      "inputs": [
        {
          "internalType": "address",
          "name": "newOwner",
          "type": "address"
        }
      ],
      "name": "changeOwner",
      "outputs": [],
      "stateMutability": "nonpayable",
      "type": "function"
    },
    {
      "inputs": [
        {
          "internalType": "uint256",
          "name": "_value",
          "type": "uint256"
        }
      ],
      "name": "complexFunction",
      "outputs": [],
      "stateMutability": "payable",
      "type": "function"
    },
    {
      "inputs": [],
      "name": "locked",
      "outputs": [
        {
          "internalType": "bool",
          "name": "",
          "type": "bool"
        }
      ],
      "stateMutability": "view",
      "type": "function"
    },
    {
      "inputs": [],
      "name": "owner",
      "outputs": [
        {
          "internalType": "address",
          "name": "",
          "type": "address"
        }
      ],
      "stateMutability": "view",
      "type": "function"
    },
    {
      "inputs": [],
      "name": "purchaseItem",
      "outputs": [],
      "stateMutability": "payable",
      "type": "function"
    },
    {
      "inputs": [
        {
          "internalType": "uint256",
          "name": "_value",
          "type": "uint256"
        }
      ],
      "name": "setValue",
      "outputs": [],
      "stateMutability": "nonpayable",
      "type": "function"
    },
    {
      "inputs": [],
      "name": "value",
      "outputs": [
        {
          "internalType": "uint256",
          "name": "",
          "type": "uint256"
        }
      ],
      "stateMutability": "view",
      "type": "function"
    },
    {
      "inputs": [],
      "name": "withdraw",
      "outputs": [],
      "stateMutability": "nonpayable",
      "type": "function"
    }
  ],
  "bytecode": "0x608060405260006001556000600260006101000a81548160ff02191690831515021790555034801561003057600080fd5b50336000806101000a81548173ffffffffffffffffffffffffffffffffffffffff021916908373ffffffffffffffffffffffffffffffffffffffff160217905550610e18806100806000396000f3fe60806040526004361061007b5760003560e01c80638da5cb5b1161004e5780638da5cb5b14610107578063a6f9dae114610132578063cf3090121461015b578063e0d0c4a6146101865761007b565b80630cd3e833146100805780633ccfd60b1461009c5780633fa4f245146100b357806355241077146100de575b600080fd5b61009a600480360381019061009591906108e8565b610190565b005b3480156100a857600080fd5b506100b16103a6565b005b3480156100bf57600080fd5b506100c8610590565b6040516100d59190610924565b60405180910390f35b3480156100ea57600080fd5b50610105600480360381019061010091906108e8565b610596565b005b34801561011357600080fd5b5061011c610673565b6040516101299190610980565b60405180910390f35b34801561013e57600080fd5b50610159600480360381019061015491906109c7565b610697565b005b34801561016757600080fd5b506101706107d7565b60405161017d9190610a0f565b60405180910390f35b61018e6107ea565b005b60008054906101000a900473ffffffffffffffffffffffffffffffffffffffff1673ffffffffffffffffffffffffffffffffffffffff163373ffffffffffffffffffffffffffffffffffffffff161461021e576040517f08c379a000000000000000000000000000000000000000000000000000000000815260040161021590610a87565b60405180910390fd5b8060008111610262576040517f08c379a000000000000000000000000000000000000000000000000000000000815260040161025990610af3565b60405180910390fd5b662386f26fc10000803410156102ad576040517f08c379a00000000000000000000000000000000000000000000000000000000081526004016102a490610b5f565b60405180910390fd5b600260009054906101000a900460ff16156102fd576040517f08c379a00000000000000000000000000000000000000000000000000000000081526004016102f490610bcb565b60405180910390fd5b6001600260006101000a81548160ff0219169083151502179055506002836103259190610c1a565b6001819055506000600260006101000a81548160ff021916908315150217905550803411156103a1573373ffffffffffffffffffffffffffffffffffffffff166108fc82346103749190610c5c565b9081150290604051600060405180830381858888f1935050505015801561039f573d6000803e3d6000fd5b505b505050565b60008054906101000a900473ffffffffffffffffffffffffffffffffffffffff1673ffffffffffffffffffffffffffffffffffffffff163373ffffffffffffffffffffffffffffffffffffffff1614610434576040517f08c379a000000000000000000000000000000000000000000000000000000000815260040161042b90610a87565b60405180910390fd5b600260009054906101000a900460ff1615610484576040517f08c379a000000000000000000000000000000000000000000000000000000000815260040161047b90610bcb565b60405180910390fd5b6001600260006101000a81548160ff021916908315150217905550600047905060008060009054906101000a900473ffffffffffffffffffffffffffffffffffffffff1673ffffffffffffffffffffffffffffffffffffffff16826040516104eb90610cc1565b60006040518083038185875af1925050503d8060008114610528576040519150601f19603f3d011682016040523d82523d6000602084013e61052d565b606091505b5050905080610571576040517f08c379a000000000000000000000000000000000000000000000000000000000815260040161056890610d22565b60405180910390fd5b50506000600260006101000a81548160ff021916908315150217905550565b60015481565b60008054906101000a900473ffffffffffffffffffffffffffffffffffffffff1673ffffffffffffffffffffffffffffffffffffffff163373ffffffffffffffffffffffffffffffffffffffff1614610624576040517f08c379a000000000000000000000000000000000000000000000000000000000815260040161061b90610a87565b60405180910390fd5b8060008111610668576040517f08c379a000000000000000000000000000000000000000000000000000000000815260040161065f90610af3565b60405180910390fd5b816001819055505050565b60008054906101000a900473ffffffffffffffffffffffffffffffffffffffff1681565b60008054906101000a900473ffffffffffffffffffffffffffffffffffffffff1673ffffffffffffffffffffffffffffffffffffffff163373ffffffffffffffffffffffffffffffffffffffff1614610725576040517f08c379a000000000000000000000000000000000000000000000000000000000815260040161071c90610a87565b60405180910390fd5b600073ffffffffffffffffffffffffffffffffffffffff168173ffffffffffffffffffffffffffffffffffffffff1603610794576040517f08c379a000000000000000000000000000000000000000000000000000000000815260040161078b90610d8e565b60405180910390fd5b806000806101000a81548173ffffffffffffffffffffffffffffffffffffffff021916908373ffffffffffffffffffffffffffffffffffffffff16021790555050565b600260009054906101000a900460ff1681565b67016345785d8a000080341015610836576040517f08c379a000000000000000000000000000000000000000000000000000000000815260040161082d90610b5f565b60405180910390fd5b60018060008282546108489190610dae565b92505081905550803411156108aa573373ffffffffffffffffffffffffffffffffffffffff166108fc823461087d9190610c5c565b9081150290604051600060405180830381858888f193505050501580156108a8573d6000803e3d6000fd5b505b50565b600080fd5b6000819050919050565b6108c5816108b2565b81146108d057600080fd5b50565b6000813590506108e2816108bc565b92915050565b6000602082840312156108fe576108fd6108ad565b5b600061090c848285016108d3565b91505092915050565b61091e816108b2565b82525050565b60006020820190506109396000830184610915565b92915050565b600073ffffffffffffffffffffffffffffffffffffffff82169050919050565b600061096a8261093f565b9050919050565b61097a8161095f565b82525050565b60006020820190506109956000830184610971565b92915050565b6109a48161095f565b81146109af57600080fd5b50565b6000813590506109c18161099b565b92915050565b6000602082840312156109dd576109dc6108ad565b5b60006109eb848285016109b2565b91505092915050565b60008115159050919050565b610a09816109f4565b82525050565b6000602082019050610a246000830184610a00565b92915050565b600082825260208201905092915050565b7f4e6f742074686520636f6e7472616374206f776e657200000000000000000000600082015250565b6000610a71601683610a2a565b9150610a7c82610a3b565b602082019050919050565b60006020820190508181036000830152610aa081610a64565b9050919050565b7f56616c7565206d7573742062652067726561746572207468616e207a65726f00600082015250565b6000610add601f83610a2a565b9150610ae882610aa7565b602082019050919050565b60006020820190508181036000830152610b0c81610ad0565b9050919050565b7f4e6f7420656e6f7567682045746865722070726f766964656400000000000000600082015250565b6000610b49601983610a2a565b9150610b5482610b13565b602082019050919050565b60006020820190508181036000830152610b7881610b3c565b9050919050565b7f4e6f207265656e7472616e637920616c6c6f7765640000000000000000000000600082015250565b6000610bb5601583610a2a565b9150610bc082610b7f565b602082019050919050565b60006020820190508181036000830152610be481610ba8565b9050919050565b7f4e487b7100000000000000000000000000000000000000000000000000000000600052601160045260246000fd5b6000610c25826108b2565b9150610c30836108b2565b9250828202610c3e816108b2565b91508282048414831517610c5557610c54610beb565b5b5092915050565b6000610c67826108b2565b9150610c72836108b2565b9250828203905081811115610c8a57610c89610beb565b5b92915050565b600081905092915050565b50565b6000610cab600083610c90565b9150610cb682610c9b565b600082019050919050565b6000610ccc82610c9e565b9150819050919050565b7f5472616e73666572206661696c65640000000000000000000000000000000000600082015250565b6000610d0c600f83610a2a565b9150610d1782610cd6565b602082019050919050565b60006020820190508181036000830152610d3b81610cff565b9050919050565b7f496e76616c696420616464726573730000000000000000000000000000000000600082015250565b6000610d78600f83610a2a565b9150610d8382610d42565b602082019050919050565b60006020820190508181036000830152610da781610d6b565b9050919050565b6000610db9826108b2565b9150610dc4836108b2565b9250828201905080821115610ddc57610ddb610beb565b5b9291505056fea26469706673582212208ff5413201718701d3aa2658428ae8edd58d3870667408a7fe7f0a7201be80df64736f6c63430008140033",
  "linkReferences": {},
  "deployedLinkReferences": {}
}