{
  "_format": "hh-sol-artifact-1",
  "contractName": "PausableToken",
  "sourceName": "contracts/06_Inheritance.sol",
  "abi": [
    {
      "inputs": [
        {
          "internalType": "string",
          "name": "_name",
          "type": "string"
        },
        {
          "internalType": "uint256",
          "name": "_initialSupply",
          "type": "uint256"
        }
      ],
      "stateMutability": "nonpayable",
      "type": "constructor"
    },
    {
      "anonymous": false,
      "inputs": [
        {
          "indexed": true,
          "internalType": "address",
          "name": "previousOwner",
          "type": "address"
        },
        {
          "indexed": true,
          "internalType": "address",
          "name": "newOwner",
          "type": "address"
        }
      ],
      "name": "OwnershipTransferred",
      "type": "event"
    },
    {
      "anonymous": false,
      "inputs": [
        {
          "indexed": false,
          "internalType": "address",
          "name": "account",
          "type": "address"
        }
      ],
      "name": "Paused",
      "type": "event"
    },
    {
      "anonymous": false,
      "inputs": [
        {
          "indexed": false,
          "internalType": "address",
          "name": "account",
          "type": "address"
        }
      ],
      "name": "Unpaused",
      "type": "event"
    },
    {
      "inputs": [
        {
          "internalType": "address",
          "name": "",
          "type": "address"
        }
      ],
      "name": "balances",
      "outputs": [
        {
          "internalType": "uint256",
          "name": "",
          "type": "uint256"
        }
      ],
      "stateMutability": "view",
      "type": "function"
    },
    {
      "inputs": [],
      "name": "name",
      "outputs": [
        {
          "internalType": "string",
          "name": "",
          "type": "string"
        }
      ],
      "stateMutability": "view",
      "type": "function"
    },
    {
      "inputs": [],
      "name": "owner",
      "outputs": [
        {
          "internalType": "address",
          "name": "",
          "type": "address"
        }
      ],
      "stateMutability": "view",
      "type": "function"
    },
    {
      "inputs": [],
      "name": "pause",
      "outputs": [],
      "stateMutability": "nonpayable",
      "type": "function"
    },
    {
      "inputs": [],
      "name": "paused",
      "outputs": [
        {
          "internalType": "bool",
          "name": "",
          "type": "bool"
        }
      ],
      "stateMutability": "view",
      "type": "function"
    },
    {
      "inputs": [],
      "name": "totalSupply",
      "outputs": [
        {
          "internalType": "uint256",
          "name": "",
          "type": "uint256"
        }
      ],
      "stateMutability": "view",
      "type": "function"
    },
    {
      "inputs": [
        {
          "internalType": "address",
          "name": "to",
          "type": "address"
        },
        {
          "internalType": "uint256",
          "name": "amount",
          "type": "uint256"
        }
      ],
      "name": "transfer",
      "outputs": [],
      "stateMutability": "nonpayable",
      "type": "function"
    },
    {
      "inputs": [
        {
          "internalType": "address",
          "name": "newOwner",
          "type": "address"
        }
      ],
      "name": "transferOwnership",
      "outputs": [],
      "stateMutability": "nonpayable",
      "type": "function"
    },
    {
      "inputs": [],
      "name": "unpause",
      "outputs": [],
      "stateMutability": "nonpayable",
      "type": "function"
    }
  ],
  "bytecode": "0x60806040523480156200001157600080fd5b5060405162001322380380620013228339818101604052810190620000379190620002ae565b8181336000806101000a81548173ffffffffffffffffffffffffffffffffffffffff021916908373ffffffffffffffffffffffffffffffffffffffff16021790555081600190816200008a919062000555565b508060028190555080600360003373ffffffffffffffffffffffffffffffffffffffff1673ffffffffffffffffffffffffffffffffffffffff16815260200190815260200160002081905550505050506200063c565b6000604051905090565b600080fd5b600080fd5b600080fd5b600080fd5b6000601f19601f8301169050919050565b7f4e487b7100000000000000000000000000000000000000000000000000000000600052604160045260246000fd5b6200014982620000fe565b810181811067ffffffffffffffff821117156200016b576200016a6200010f565b5b80604052505050565b600062000180620000e0565b90506200018e82826200013e565b919050565b600067ffffffffffffffff821115620001b157620001b06200010f565b5b620001bc82620000fe565b9050602081019050919050565b60005b83811015620001e9578082015181840152602081019050620001cc565b60008484015250505050565b60006200020c620002068462000193565b62000174565b9050828152602081018484840111156200022b576200022a620000f9565b5b62000238848285620001c9565b509392505050565b600082601f830112620002585762000257620000f4565b5b81516200026a848260208601620001f5565b91505092915050565b6000819050919050565b620002888162000273565b81146200029457600080fd5b50565b600081519050620002a8816200027d565b92915050565b60008060408385031215620002c857620002c7620000ea565b5b600083015167ffffffffffffffff811115620002e957620002e8620000ef565b5b620002f78582860162000240565b92505060206200030a8582860162000297565b9150509250929050565b600081519050919050565b7f4e487b7100000000000000000000000000000000000000000000000000000000600052602260045260246000fd5b600060028204905060018216806200036757607f821691505b6020821081036200037d576200037c6200031f565b5b50919050565b60008190508160005260206000209050919050565b60006020601f8301049050919050565b600082821b905092915050565b600060088302620003e77fffffffffffffffffffffffffffffffffffffffffffffffffffffffffffffffff82620003a8565b620003f38683620003a8565b95508019841693508086168417925050509392505050565b6000819050919050565b600062000436620004306200042a8462000273565b6200040b565b62000273565b9050919050565b6000819050919050565b620004528362000415565b6200046a62000461826200043d565b848454620003b5565b825550505050565b600090565b6200048162000472565b6200048e81848462000447565b505050565b5b81811015620004b657620004aa60008262000477565b60018101905062000494565b5050565b601f8211156200050557620004cf8162000383565b620004da8462000398565b81016020851015620004ea578190505b62000502620004f98562000398565b83018262000493565b50505b505050565b600082821c905092915050565b60006200052a600019846008026200050a565b1980831691505092915050565b600062000545838362000517565b9150826002028217905092915050565b620005608262000314565b67ffffffffffffffff8111156200057c576200057b6200010f565b5b6200058882546200034e565b62000595828285620004ba565b600060209050601f831160018114620005cd5760008415620005b8578287015190505b620005c4858262000537565b86555062000634565b601f198416620005dd8662000383565b60005b828110156200060757848901518255600182019150602085019450602081019050620005e0565b8683101562000627578489015162000623601f89168262000517565b8355505b6001600288020188555050505b505050505050565b610cd6806200064c6000396000f3fe608060405234801561001057600080fd5b50600436106100935760003560e01c80635c975abb116100665780635c975abb1461010e5780638456cb591461012c5780638da5cb5b14610136578063a9059cbb14610154578063f2fde38b1461017057610093565b806306fdde031461009857806318160ddd146100b657806327e235e3146100d45780633f4ba83a14610104575b600080fd5b6100a061018c565b6040516100ad9190610821565b60405180910390f35b6100be61021a565b6040516100cb919061085c565b60405180910390f35b6100ee60048036038101906100e991906108da565b610220565b6040516100fb919061085c565b60405180910390f35b61010c610238565b005b6101166102d0565b6040516101239190610922565b60405180910390f35b6101346102e3565b005b61013e61037b565b60405161014b919061094c565b60405180910390f35b61016e60048036038101906101699190610993565b61039f565b005b61018a600480360381019061018591906108da565b6103fd565b005b6001805461019990610a02565b80601f01602080910402602001604051908101604052809291908181526020018280546101c590610a02565b80156102125780601f106101e757610100808354040283529160200191610212565b820191906000526020600020905b8154815290600101906020018083116101f557829003601f168201915b505050505081565b60025481565b60036020528060005260406000206000915090505481565b60008054906101000a900473ffffffffffffffffffffffffffffffffffffffff1673ffffffffffffffffffffffffffffffffffffffff163373ffffffffffffffffffffffffffffffffffffffff16146102c6576040517f08c379a00000000000000000000000000000000000000000000000000000000081526004016102bd90610a7f565b60405180910390fd5b6102ce6105b7565b565b600460009054906101000a900460ff1681565b60008054906101000a900473ffffffffffffffffffffffffffffffffffffffff1673ffffffffffffffffffffffffffffffffffffffff163373ffffffffffffffffffffffffffffffffffffffff1614610371576040517f08c379a000000000000000000000000000000000000000000000000000000000815260040161036890610a7f565b60405180910390fd5b61037961060b565b565b60008054906101000a900473ffffffffffffffffffffffffffffffffffffffff1681565b600460009054906101000a900460ff16156103ef576040517f08c379a00000000000000000000000000000000000000000000000000000000081526004016103e690610aeb565b60405180910390fd5b6103f9828261065f565b5050565b60008054906101000a900473ffffffffffffffffffffffffffffffffffffffff1673ffffffffffffffffffffffffffffffffffffffff163373ffffffffffffffffffffffffffffffffffffffff161461048b576040517f08c379a000000000000000000000000000000000000000000000000000000000815260040161048290610a7f565b60405180910390fd5b600073ffffffffffffffffffffffffffffffffffffffff168173ffffffffffffffffffffffffffffffffffffffff16036104fa576040517f08c379a00000000000000000000000000000000000000000000000000000000081526004016104f190610b7d565b60405180910390fd5b8073ffffffffffffffffffffffffffffffffffffffff1660008054906101000a900473ffffffffffffffffffffffffffffffffffffffff1673ffffffffffffffffffffffffffffffffffffffff167f8be0079c531659141344cd1fd0a4f28419497f9722a3daafe3b4186f6b6457e060405160405180910390a3806000806101000a81548173ffffffffffffffffffffffffffffffffffffffff021916908373ffffffffffffffffffffffffffffffffffffffff16021790555050565b6000600460006101000a81548160ff0219169083151502179055507f5db9ee0a495bf2e6ff9c91a7834c1ba4fdd244a5e8aa4e537bd38aeae4b073aa33604051610601919061094c565b60405180910390a1565b6001600460006101000a81548160ff0219169083151502179055507f62e78cea01bee320cd4e420270b5ea74000d11b0c9f74754ebdbfc544b05a25833604051610655919061094c565b60405180910390a1565b80600360003373ffffffffffffffffffffffffffffffffffffffff1673ffffffffffffffffffffffffffffffffffffffff1681526020019081526020016000205410156106e1576040517f08c379a00000000000000000000000000000000000000000000000000000000081526004016106d890610be9565b60405180910390fd5b80600360003373ffffffffffffffffffffffffffffffffffffffff1673ffffffffffffffffffffffffffffffffffffffff16815260200190815260200160002060008282546107309190610c38565b9250508190555080600360008473ffffffffffffffffffffffffffffffffffffffff1673ffffffffffffffffffffffffffffffffffffffff16815260200190815260200160002060008282546107869190610c6c565b925050819055505050565b600081519050919050565b600082825260208201905092915050565b60005b838110156107cb5780820151818401526020810190506107b0565b60008484015250505050565b6000601f19601f8301169050919050565b60006107f382610791565b6107fd818561079c565b935061080d8185602086016107ad565b610816816107d7565b840191505092915050565b6000602082019050818103600083015261083b81846107e8565b905092915050565b6000819050919050565b61085681610843565b82525050565b6000602082019050610871600083018461084d565b92915050565b600080fd5b600073ffffffffffffffffffffffffffffffffffffffff82169050919050565b60006108a78261087c565b9050919050565b6108b78161089c565b81146108c257600080fd5b50565b6000813590506108d4816108ae565b92915050565b6000602082840312156108f0576108ef610877565b5b60006108fe848285016108c5565b91505092915050565b60008115159050919050565b61091c81610907565b82525050565b60006020820190506109376000830184610913565b92915050565b6109468161089c565b82525050565b6000602082019050610961600083018461093d565b92915050565b61097081610843565b811461097b57600080fd5b50565b60008135905061098d81610967565b92915050565b600080604083850312156109aa576109a9610877565b5b60006109b8858286016108c5565b92505060206109c98582860161097e565b9150509250929050565b7f4e487b7100000000000000000000000000000000000000000000000000000000600052602260045260246000fd5b60006002820490506001821680610a1a57607f821691505b602082108103610a2d57610a2c6109d3565b5b50919050565b7f4f776e61626c653a2063616c6c6572206973206e6f7420746865206f776e6572600082015250565b6000610a6960208361079c565b9150610a7482610a33565b602082019050919050565b60006020820190508181036000830152610a9881610a5c565b9050919050565b7f5061757361626c653a2070617573656400000000000000000000000000000000600082015250565b6000610ad560108361079c565b9150610ae082610a9f565b602082019050919050565b60006020820190508181036000830152610b0481610ac8565b9050919050565b7f4f776e61626c653a206e6577206f776e657220697320746865207a65726f206160008201527f6464726573730000000000000000000000000000000000000000000000000000602082015250565b6000610b6760268361079c565b9150610b7282610b0b565b604082019050919050565b60006020820190508181036000830152610b9681610b5a565b9050919050565b7f496e73756666696369656e742062616c616e6365000000000000000000000000600082015250565b6000610bd360148361079c565b9150610bde82610b9d565b602082019050919050565b60006020820190508181036000830152610c0281610bc6565b9050919050565b7f4e487b7100000000000000000000000000000000000000000000000000000000600052601160045260246000fd5b6000610c4382610843565b9150610c4e83610843565b9250828203905081811115610c6657610c65610c09565b5b92915050565b6000610c7782610843565b9150610c8283610843565b9250828201905080821115610c9a57610c99610c09565b5b9291505056fea2646970667358221220c26e9fecd676d882b5dc2e4d2b0ba39a0775cad8910287e86c66926180ed149164736f6c63430008140033",
  "linkReferences": {},
  "deployedLinkReferences": {}
}