{
  "_format": "hh-sol-artifact-1",
  "contractName": "Token",
  "sourceName": "contracts/06_Inheritance.sol",
  "abi": [
    {
      "inputs": [
        {
          "internalType": "string",
          "name": "_name",
          "type": "string"
        },
        {
          "internalType": "uint256",
          "name": "_initialSupply",
          "type": "uint256"
        }
      ],
      "stateMutability": "nonpayable",
      "type": "constructor"
    },
    {
      "anonymous": false,
      "inputs": [
        {
          "indexed": true,
          "internalType": "address",
          "name": "previousOwner",
          "type": "address"
        },
        {
          "indexed": true,
          "internalType": "address",
          "name": "newOwner",
          "type": "address"
        }
      ],
      "name": "OwnershipTransferred",
      "type": "event"
    },
    {
      "inputs": [
        {
          "internalType": "address",
          "name": "",
          "type": "address"
        }
      ],
      "name": "balances",
      "outputs": [
        {
          "internalType": "uint256",
          "name": "",
          "type": "uint256"
        }
      ],
      "stateMutability": "view",
      "type": "function"
    },
    {
      "inputs": [],
      "name": "name",
      "outputs": [
        {
          "internalType": "string",
          "name": "",
          "type": "string"
        }
      ],
      "stateMutability": "view",
      "type": "function"
    },
    {
      "inputs": [],
      "name": "owner",
      "outputs": [
        {
          "internalType": "address",
          "name": "",
          "type": "address"
        }
      ],
      "stateMutability": "view",
      "type": "function"
    },
    {
      "inputs": [],
      "name": "totalSupply",
      "outputs": [
        {
          "internalType": "uint256",
          "name": "",
          "type": "uint256"
        }
      ],
      "stateMutability": "view",
      "type": "function"
    },
    {
      "inputs": [
        {
          "internalType": "address",
          "name": "to",
          "type": "address"
        },
        {
          "internalType": "uint256",
          "name": "amount",
          "type": "uint256"
        }
      ],
      "name": "transfer",
      "outputs": [],
      "stateMutability": "nonpayable",
      "type": "function"
    },
    {
      "inputs": [
        {
          "internalType": "address",
          "name": "newOwner",
          "type": "address"
        }
      ],
      "name": "transferOwnership",
      "outputs": [],
      "stateMutability": "nonpayable",
      "type": "function"
    }
  ],
  "bytecode": "0x60806040523480156200001157600080fd5b5060405162000fd038038062000fd08339818101604052810190620000379190620002aa565b336000806101000a81548173ffffffffffffffffffffffffffffffffffffffff021916908373ffffffffffffffffffffffffffffffffffffffff160217905550816001908162000088919062000551565b508060028190555080600360003373ffffffffffffffffffffffffffffffffffffffff1673ffffffffffffffffffffffffffffffffffffffff16815260200190815260200160002081905550505062000638565b6000604051905090565b600080fd5b600080fd5b600080fd5b600080fd5b6000601f19601f8301169050919050565b7f4e487b7100000000000000000000000000000000000000000000000000000000600052604160045260246000fd5b6200014582620000fa565b810181811067ffffffffffffffff821117156200016757620001666200010b565b5b80604052505050565b60006200017c620000dc565b90506200018a82826200013a565b919050565b600067ffffffffffffffff821115620001ad57620001ac6200010b565b5b620001b882620000fa565b9050602081019050919050565b60005b83811015620001e5578082015181840152602081019050620001c8565b60008484015250505050565b60006200020862000202846200018f565b62000170565b905082815260208101848484011115620002275762000226620000f5565b5b62000234848285620001c5565b509392505050565b600082601f830112620002545762000253620000f0565b5b815162000266848260208601620001f1565b91505092915050565b6000819050919050565b62000284816200026f565b81146200029057600080fd5b50565b600081519050620002a48162000279565b92915050565b60008060408385031215620002c457620002c3620000e6565b5b600083015167ffffffffffffffff811115620002e557620002e4620000eb565b5b620002f3858286016200023c565b9250506020620003068582860162000293565b9150509250929050565b600081519050919050565b7f4e487b7100000000000000000000000000000000000000000000000000000000600052602260045260246000fd5b600060028204905060018216806200036357607f821691505b6020821081036200037957620003786200031b565b5b50919050565b60008190508160005260206000209050919050565b60006020601f8301049050919050565b600082821b905092915050565b600060088302620003e37fffffffffffffffffffffffffffffffffffffffffffffffffffffffffffffffff82620003a4565b620003ef8683620003a4565b95508019841693508086168417925050509392505050565b6000819050919050565b6000620004326200042c62000426846200026f565b62000407565b6200026f565b9050919050565b6000819050919050565b6200044e8362000411565b620004666200045d8262000439565b848454620003b1565b825550505050565b600090565b6200047d6200046e565b6200048a81848462000443565b505050565b5b81811015620004b257620004a660008262000473565b60018101905062000490565b5050565b601f8211156200050157620004cb816200037f565b620004d68462000394565b81016020851015620004e6578190505b620004fe620004f58562000394565b8301826200048f565b50505b505050565b600082821c905092915050565b6000620005266000198460080262000506565b1980831691505092915050565b600062000541838362000513565b9150826002028217905092915050565b6200055c8262000310565b67ffffffffffffffff8111156200057857620005776200010b565b5b6200058482546200034a565b62000591828285620004b6565b600060209050601f831160018114620005c95760008415620005b4578287015190505b620005c0858262000533565b86555062000630565b601f198416620005d9866200037f565b60005b828110156200060357848901518255600182019150602085019450602081019050620005dc565b868310156200062357848901516200061f601f89168262000513565b8355505b6001600288020188555050505b505050505050565b61098880620006486000396000f3fe608060405234801561001057600080fd5b50600436106100625760003560e01c806306fdde031461006757806318160ddd1461008557806327e235e3146100a35780638da5cb5b146100d3578063a9059cbb146100f1578063f2fde38b1461010d575b600080fd5b61006f610129565b60405161007c9190610575565b60405180910390f35b61008d6101b7565b60405161009a91906105b0565b60405180910390f35b6100bd60048036038101906100b8919061062e565b6101bd565b6040516100ca91906105b0565b60405180910390f35b6100db6101d5565b6040516100e8919061066a565b60405180910390f35b61010b600480360381019061010691906106b1565b6101f9565b005b6101276004803603810190610122919061062e565b61032b565b005b6001805461013690610720565b80601f016020809104026020016040519081016040528092919081815260200182805461016290610720565b80156101af5780601f10610184576101008083540402835291602001916101af565b820191906000526020600020905b81548152906001019060200180831161019257829003601f168201915b505050505081565b60025481565b60036020528060005260406000206000915090505481565b60008054906101000a900473ffffffffffffffffffffffffffffffffffffffff1681565b80600360003373ffffffffffffffffffffffffffffffffffffffff1673ffffffffffffffffffffffffffffffffffffffff16815260200190815260200160002054101561027b576040517f08c379a00000000000000000000000000000000000000000000000000000000081526004016102729061079d565b60405180910390fd5b80600360003373ffffffffffffffffffffffffffffffffffffffff1673ffffffffffffffffffffffffffffffffffffffff16815260200190815260200160002060008282546102ca91906107ec565b9250508190555080600360008473ffffffffffffffffffffffffffffffffffffffff1673ffffffffffffffffffffffffffffffffffffffff16815260200190815260200160002060008282546103209190610820565b925050819055505050565b60008054906101000a900473ffffffffffffffffffffffffffffffffffffffff1673ffffffffffffffffffffffffffffffffffffffff163373ffffffffffffffffffffffffffffffffffffffff16146103b9576040517f08c379a00000000000000000000000000000000000000000000000000000000081526004016103b0906108a0565b60405180910390fd5b600073ffffffffffffffffffffffffffffffffffffffff168173ffffffffffffffffffffffffffffffffffffffff1603610428576040517f08c379a000000000000000000000000000000000000000000000000000000000815260040161041f90610932565b60405180910390fd5b8073ffffffffffffffffffffffffffffffffffffffff1660008054906101000a900473ffffffffffffffffffffffffffffffffffffffff1673ffffffffffffffffffffffffffffffffffffffff167f8be0079c531659141344cd1fd0a4f28419497f9722a3daafe3b4186f6b6457e060405160405180910390a3806000806101000a81548173ffffffffffffffffffffffffffffffffffffffff021916908373ffffffffffffffffffffffffffffffffffffffff16021790555050565b600081519050919050565b600082825260208201905092915050565b60005b8381101561051f578082015181840152602081019050610504565b60008484015250505050565b6000601f19601f8301169050919050565b6000610547826104e5565b61055181856104f0565b9350610561818560208601610501565b61056a8161052b565b840191505092915050565b6000602082019050818103600083015261058f818461053c565b905092915050565b6000819050919050565b6105aa81610597565b82525050565b60006020820190506105c560008301846105a1565b92915050565b600080fd5b600073ffffffffffffffffffffffffffffffffffffffff82169050919050565b60006105fb826105d0565b9050919050565b61060b816105f0565b811461061657600080fd5b50565b60008135905061062881610602565b92915050565b600060208284031215610644576106436105cb565b5b600061065284828501610619565b91505092915050565b610664816105f0565b82525050565b600060208201905061067f600083018461065b565b92915050565b61068e81610597565b811461069957600080fd5b50565b6000813590506106ab81610685565b92915050565b600080604083850312156106c8576106c76105cb565b5b60006106d685828601610619565b92505060206106e78582860161069c565b9150509250929050565b7f4e487b7100000000000000000000000000000000000000000000000000000000600052602260045260246000fd5b6000600282049050600182168061073857607f821691505b60208210810361074b5761074a6106f1565b5b50919050565b7f496e73756666696369656e742062616c616e6365000000000000000000000000600082015250565b60006107876014836104f0565b915061079282610751565b602082019050919050565b600060208201905081810360008301526107b68161077a565b9050919050565b7f4e487b7100000000000000000000000000000000000000000000000000000000600052601160045260246000fd5b60006107f782610597565b915061080283610597565b925082820390508181111561081a576108196107bd565b5b92915050565b600061082b82610597565b915061083683610597565b925082820190508082111561084e5761084d6107bd565b5b92915050565b7f4f776e61626c653a2063616c6c6572206973206e6f7420746865206f776e6572600082015250565b600061088a6020836104f0565b915061089582610854565b602082019050919050565b600060208201905081810360008301526108b98161087d565b9050919050565b7f4f776e61626c653a206e6577206f776e657220697320746865207a65726f206160008201527f6464726573730000000000000000000000000000000000000000000000000000602082015250565b600061091c6026836104f0565b9150610927826108c0565b604082019050919050565b6000602082019050818103600083015261094b8161090f565b905091905056fea2646970667358221220d3ab9be046796acbfe352153b00b0c70dd101d8868735be377837aea6b300ba164736f6c63430008140033",
  "linkReferences": {},
  "deployedLinkReferences": {}
}